{
  "_format": "hh-sol-artifact-1",
  "contractName": "BangDaiHoc",
  "sourceName": "contracts/BangDaiHoc.sol",
  "abi": [
    {
      "inputs": [],
      "stateMutability": "nonpayable",
      "type": "constructor"
    },
    {
      "anonymous": false,
      "inputs": [
        {
          "indexed": true,
          "internalType": "address",
          "name": "previousOwner",
          "type": "address"
        },
        {
          "indexed": true,
          "internalType": "address",
          "name": "newOwner",
          "type": "address"
        }
      ],
      "name": "OwnershipTransferred",
      "type": "event"
    },
    {
      "inputs": [
        {
          "internalType": "string",
          "name": "_masv",
          "type": "string"
        }
      ],
      "name": "ChiTietSinhVien",
      "outputs": [
        {
          "internalType": "string",
          "name": "NoiSinh",
          "type": "string"
        },
        {
          "internalType": "string",
          "name": "DanToc",
          "type": "string"
        },
        {
          "internalType": "string",
          "name": "QuocTich",
          "type": "string"
        },
        {
          "internalType": "string",
          "name": "Lop",
          "type": "string"
        }
      ],
      "stateMutability": "nonpayable",
      "type": "function"
    },
    {
      "inputs": [
        {
          "internalType": "address",
          "name": "diaChi",
          "type": "address"
        },
        {
          "internalType": "string",
          "name": "ten",
          "type": "string"
        },
        {
          "internalType": "bool",
          "name": "admin",
          "type": "bool"
        }
      ],
      "name": "ChinhSuaNguoiDung",
      "outputs": [],
      "stateMutability": "nonpayable",
      "type": "function"
    },
    {
      "inputs": [
        {
          "internalType": "string",
          "name": "maSV",
          "type": "string"
        },
        {
          "internalType": "string",
          "name": "tenSV",
          "type": "string"
        },
        {
          "internalType": "string",
          "name": "ngaySinh",
          "type": "string"
        },
        {
          "internalType": "string",
          "name": "gioiTinh",
          "type": "string"
        },
        {
          "internalType": "string",
          "name": "noiSinh",
          "type": "string"
        },
        {
          "internalType": "string",
          "name": "danToc",
          "type": "string"
        },
        {
          "internalType": "string",
          "name": "quocTich",
          "type": "string"
        },
        {
          "internalType": "string",
          "name": "lop",
          "type": "string"
        }
      ],
      "name": "ChinhSuaSinhVien",
      "outputs": [],
      "stateMutability": "nonpayable",
      "type": "function"
    },
    {
      "inputs": [
        {
          "internalType": "string",
          "name": "Chuoi",
          "type": "string"
        }
      ],
      "name": "ChuoiRong",
      "outputs": [
        {
          "internalType": "bool",
          "name": "",
          "type": "bool"
        }
      ],
      "stateMutability": "pure",
      "type": "function"
    },
    {
      "inputs": [],
      "name": "DanhsachnguoidungHeThong",
      "outputs": [
        {
          "components": [
            {
              "internalType": "uint256",
              "name": "id",
              "type": "uint256"
            },
            {
              "internalType": "address",
              "name": "DiaChi",
              "type": "address"
            },
            {
              "internalType": "string",
              "name": "Ten",
              "type": "string"
            },
            {
              "internalType": "bool",
              "name": "Admin",
              "type": "bool"
            }
          ],
          "internalType": "struct BangDaiHoc.NguoiDung[]",
          "name": "",
          "type": "tuple[]"
        }
      ],
      "stateMutability": "view",
      "type": "function"
    },
    {
      "inputs": [],
      "name": "Danhsachsinhvien",
      "outputs": [
        {
          "components": [
            {
              "internalType": "string",
              "name": "MaSV",
              "type": "string"
            },
            {
              "internalType": "string",
              "name": "TenSV",
              "type": "string"
            },
            {
              "internalType": "string",
              "name": "NgaySinh",
              "type": "string"
            },
            {
              "internalType": "string",
              "name": "GioiTinh",
              "type": "string"
            },
            {
              "internalType": "string",
              "name": "NoiSinh",
              "type": "string"
            },
            {
              "internalType": "string",
              "name": "DanToc",
              "type": "string"
            },
            {
              "internalType": "string",
              "name": "QuocTich",
              "type": "string"
            },
            {
              "internalType": "string",
              "name": "Lop",
              "type": "string"
            }
          ],
          "internalType": "struct BangDaiHoc.SinhVien[]",
          "name": "",
          "type": "tuple[]"
        }
      ],
      "stateMutability": "view",
      "type": "function"
    },
    {
      "inputs": [
        {
          "internalType": "address",
          "name": "diaChi",
          "type": "address"
        },
        {
          "internalType": "string",
          "name": "ten",
          "type": "string"
        }
      ],
      "name": "ThemNguoiDung",
      "outputs": [],
      "stateMutability": "nonpayable",
      "type": "function"
    },
    {
      "inputs": [
        {
          "internalType": "string",
          "name": "maSV",
          "type": "string"
        },
        {
          "internalType": "string",
          "name": "tenSV",
          "type": "string"
        },
        {
          "internalType": "string",
          "name": "ngaySinh",
          "type": "string"
        },
        {
          "internalType": "string",
          "name": "gioiTinh",
          "type": "string"
        },
        {
          "internalType": "string",
          "name": "noiSinh",
          "type": "string"
        },
        {
          "internalType": "string",
          "name": "danToc",
          "type": "string"
        },
        {
          "internalType": "string",
          "name": "quocTich",
          "type": "string"
        },
        {
          "internalType": "string",
          "name": "lop",
          "type": "string"
        }
      ],
      "name": "ThemSinhVien",
      "outputs": [],
      "stateMutability": "nonpayable",
      "type": "function"
    },
    {
      "inputs": [
        {
          "internalType": "address",
          "name": "diaChi",
          "type": "address"
        }
      ],
      "name": "TimNguoiDung",
      "outputs": [
        {
          "internalType": "address",
          "name": "diachi",
          "type": "address"
        },
        {
          "internalType": "string",
          "name": "ten",
          "type": "string"
        },
        {
          "internalType": "bool",
          "name": "ketqua",
          "type": "bool"
        }
      ],
      "stateMutability": "view",
      "type": "function"
    },
    {
      "inputs": [
        {
          "internalType": "string",
          "name": "_masv",
          "type": "string"
        }
      ],
      "name": "TimSinhVien",
      "outputs": [
        {
          "internalType": "string",
          "name": "MaSV",
          "type": "string"
        },
        {
          "internalType": "string",
          "name": "TenSV",
          "type": "string"
        },
        {
          "internalType": "string",
          "name": "NgaySinh",
          "type": "string"
        },
        {
          "internalType": "string",
          "name": "GioiTinh",
          "type": "string"
        }
      ],
      "stateMutability": "view",
      "type": "function"
    },
    {
      "inputs": [],
      "name": "TotalSV",
      "outputs": [
        {
          "internalType": "uint256",
          "name": "",
          "type": "uint256"
        }
      ],
      "stateMutability": "view",
      "type": "function"
    },
    {
      "inputs": [
        {
          "internalType": "address",
          "name": "addressToCheck",
          "type": "address"
        }
      ],
      "name": "isApprover",
      "outputs": [
        {
          "internalType": "bool",
          "name": "",
          "type": "bool"
        }
      ],
      "stateMutability": "view",
      "type": "function"
    },
    {
      "inputs": [],
      "name": "owner",
      "outputs": [
        {
          "internalType": "address",
          "name": "",
          "type": "address"
        }
      ],
      "stateMutability": "view",
      "type": "function"
    },
    {
      "inputs": [
        {
          "internalType": "address",
          "name": "approverAddress",
          "type": "address"
        }
      ],
      "name": "removeApprovers",
      "outputs": [],
      "stateMutability": "nonpayable",
      "type": "function"
    },
    {
      "inputs": [],
      "name": "renounceOwnership",
      "outputs": [],
      "stateMutability": "nonpayable",
      "type": "function"
    },
    {
      "inputs": [
        {
          "internalType": "address",
          "name": "approverAddress",
          "type": "address"
        }
      ],
      "name": "setApprovers",
      "outputs": [],
      "stateMutability": "nonpayable",
      "type": "function"
    },
    {
      "inputs": [],
      "name": "totalUser",
      "outputs": [
        {
          "internalType": "uint256",
          "name": "",
          "type": "uint256"
        }
      ],
      "stateMutability": "view",
      "type": "function"
    },
    {
      "inputs": [
        {
          "internalType": "address",
          "name": "newOwner",
          "type": "address"
        }
      ],
      "name": "transferOwnership",
      "outputs": [],
      "stateMutability": "nonpayable",
      "type": "function"
    }
  ],
  "bytecode": "0x6080604052600160025560006006553480156200001b57600080fd5b506200003c62000030620001d660201b60201c565b620001de60201b60201c565b6040518060800160405280600081526020013373ffffffffffffffffffffffffffffffffffffffff1681526020016040518060400160405280600581526020017f41646d696e000000000000000000000000000000000000000000000000000000815250815260200160011515815250600160003373ffffffffffffffffffffffffffffffffffffffff1673ffffffffffffffffffffffffffffffffffffffff1681526020019081526020016000206000820151816000015560208201518160010160006101000a81548173ffffffffffffffffffffffffffffffffffffffff021916908373ffffffffffffffffffffffffffffffffffffffff16021790555060408201518160020190805190602001906200015a929190620002a2565b5060608201518160030160006101000a81548160ff021916908315150217905550905050336003600080815260200190815260200160002060006101000a81548173ffffffffffffffffffffffffffffffffffffffff021916908373ffffffffffffffffffffffffffffffffffffffff160217905550620003b7565b600033905090565b60008060009054906101000a900473ffffffffffffffffffffffffffffffffffffffff169050816000806101000a81548173ffffffffffffffffffffffffffffffffffffffff021916908373ffffffffffffffffffffffffffffffffffffffff1602179055508173ffffffffffffffffffffffffffffffffffffffff168173ffffffffffffffffffffffffffffffffffffffff167f8be0079c531659141344cd1fd0a4f28419497f9722a3daafe3b4186f6b6457e060405160405180910390a35050565b828054620002b09062000352565b90600052602060002090601f016020900481019282620002d4576000855562000320565b82601f10620002ef57805160ff191683800117855562000320565b8280016001018555821562000320579182015b828111156200031f57825182559160200191906001019062000302565b5b5090506200032f919062000333565b5090565b5b808211156200034e57600081600090555060010162000334565b5090565b600060028204905060018216806200036b57607f821691505b6020821081141562000382576200038162000388565b5b50919050565b7f4e487b7100000000000000000000000000000000000000000000000000000000600052602260045260246000fd5b6131e080620003c76000396000f3fe608060405234801561001057600080fd5b50600436106101165760003560e01c8063ab06d0a8116100a2578063e1604b7011610071578063e1604b70146102e7578063f09116eb14610305578063f1b50f0714610321578063f2fde38b1461033f578063f46276431461035b57610116565b8063ab06d0a81461025f578063ba30c93f1461027b578063badf3b8b14610297578063d371481a146102b557610116565b806333ffd688116100e957806333ffd688146101cd5780636d218e48146101e9578063715018a61461021957806383a1a899146102235780638da5cb5b1461024157610116565b8063152664fd1461011b57806316480ab11461013757806326278f871461016757806327e9b6781461019a575b600080fd5b6101356004803603810190610130919061262d565b610377565b005b610151600480360381019061014c91906125ec565b6105fd565b60405161015e9190612ca5565b60405180910390f35b610181600480360381019061017c91906125ec565b610622565b6040516101919493929190612cc0565b60405180910390f35b6101b460048036038101906101af91906125ec565b61089a565b6040516101c49493929190612cc0565b60405180910390f35b6101e760048036038101906101e29190612508565b610d82565b005b61020360048036038101906101fe9190612508565b610e59565b6040516102109190612ca5565b60405180910390f35b610221610eaf565b005b61022b610f37565b6040516102389190612c83565b60405180910390f35b610249611507565b6040516102569190612c08565b60405180910390f35b61027960048036038101906102749190612508565b611530565b005b61029560048036038101906102909190612531565b611607565b005b61029f611804565b6040516102ac9190612d81565b60405180910390f35b6102cf60048036038101906102ca9190612508565b61180a565b6040516102de93929190612c23565b60405180910390f35b6102ef611987565b6040516102fc9190612d81565b60405180910390f35b61031f600480360381019061031a919061262d565b61198d565b005b610329611c21565b6040516103369190612c61565b60405180910390f35b61035960048036038101906103549190612508565b611e9f565b005b61037560048036038101906103709190612585565b611f97565b005b60011515600460006103876120cb565b73ffffffffffffffffffffffffffffffffffffffff1673ffffffffffffffffffffffffffffffffffffffff16815260200190815260200160002060009054906101000a900460ff161515148061041657506103e0611507565b73ffffffffffffffffffffffffffffffffffffffff166103fe6120cb565b73ffffffffffffffffffffffffffffffffffffffff16145b610455576040517f08c379a000000000000000000000000000000000000000000000000000000000815260040161044c90612d41565b60405180910390fd5b61045e886120d3565b61046757600080fd5b6104703361219e565b61047957600080fd5b8660058960405161048a9190612bda565b908152602001604051809103902060010190805190602001906104ae92919061234e565b50856005896040516104c09190612bda565b908152602001604051809103902060020190805190602001906104e492919061234e565b50846005896040516104f69190612bda565b9081526020016040518091039020600301908051906020019061051a92919061234e565b508360058960405161052c9190612bda565b9081526020016040518091039020600401908051906020019061055092919061234e565b50826005896040516105629190612bda565b9081526020016040518091039020600501908051906020019061058692919061234e565b50816005896040516105989190612bda565b908152602001604051809103902060060190805190602001906105bc92919061234e565b50806005896040516105ce9190612bda565b908152602001604051809103902060070190805190602001906105f292919061234e565b505050505050505050565b60008082905060008151141561061757600191505061061d565b60009150505b919050565b606080606080600060058660405161063a9190612bda565b908152602001604051809103902090508060040181600501826006018360070183805461066690612f91565b80601f016020809104026020016040519081016040528092919081815260200182805461069290612f91565b80156106df5780601f106106b4576101008083540402835291602001916106df565b820191906000526020600020905b8154815290600101906020018083116106c257829003601f168201915b505050505093508280546106f290612f91565b80601f016020809104026020016040519081016040528092919081815260200182805461071e90612f91565b801561076b5780601f106107405761010080835404028352916020019161076b565b820191906000526020600020905b81548152906001019060200180831161074e57829003601f168201915b5050505050925081805461077e90612f91565b80601f01602080910402602001604051908101604052809291908181526020018280546107aa90612f91565b80156107f75780601f106107cc576101008083540402835291602001916107f7565b820191906000526020600020905b8154815290600101906020018083116107da57829003601f168201915b5050505050915080805461080a90612f91565b80601f016020809104026020016040519081016040528092919081815260200182805461083690612f91565b80156108835780601f1061085857610100808354040283529160200191610883565b820191906000526020600020905b81548152906001019060200180831161086657829003601f168201915b505050505090509450945094509450509193509193565b60608060608060006005866040516108b29190612bda565b9081526020016040518091039020604051806101000160405290816000820180546108dc90612f91565b80601f016020809104026020016040519081016040528092919081815260200182805461090890612f91565b80156109555780601f1061092a57610100808354040283529160200191610955565b820191906000526020600020905b81548152906001019060200180831161093857829003601f168201915b5050505050815260200160018201805461096e90612f91565b80601f016020809104026020016040519081016040528092919081815260200182805461099a90612f91565b80156109e75780601f106109bc576101008083540402835291602001916109e7565b820191906000526020600020905b8154815290600101906020018083116109ca57829003601f168201915b50505050508152602001600282018054610a0090612f91565b80601f0160208091040260200160405190810160405280929190818152602001828054610a2c90612f91565b8015610a795780601f10610a4e57610100808354040283529160200191610a79565b820191906000526020600020905b815481529060010190602001808311610a5c57829003601f168201915b50505050508152602001600382018054610a9290612f91565b80601f0160208091040260200160405190810160405280929190818152602001828054610abe90612f91565b8015610b0b5780601f10610ae057610100808354040283529160200191610b0b565b820191906000526020600020905b815481529060010190602001808311610aee57829003601f168201915b50505050508152602001600482018054610b2490612f91565b80601f0160208091040260200160405190810160405280929190818152602001828054610b5090612f91565b8015610b9d5780601f10610b7257610100808354040283529160200191610b9d565b820191906000526020600020905b815481529060010190602001808311610b8057829003601f168201915b50505050508152602001600582018054610bb690612f91565b80601f0160208091040260200160405190810160405280929190818152602001828054610be290612f91565b8015610c2f5780601f10610c0457610100808354040283529160200191610c2f565b820191906000526020600020905b815481529060010190602001808311610c1257829003601f168201915b50505050508152602001600682018054610c4890612f91565b80601f0160208091040260200160405190810160405280929190818152602001828054610c7490612f91565b8015610cc15780601f10610c9657610100808354040283529160200191610cc1565b820191906000526020600020905b815481529060010190602001808311610ca457829003601f168201915b50505050508152602001600782018054610cda90612f91565b80601f0160208091040260200160405190810160405280929190818152602001828054610d0690612f91565b8015610d535780601f10610d2857610100808354040283529160200191610d53565b820191906000526020600020905b815481529060010190602001808311610d3657829003601f168201915b505050505081525050905080600001518160200151826040015183606001519450945094509450509193509193565b610d8a6120cb565b73ffffffffffffffffffffffffffffffffffffffff16610da8611507565b73ffffffffffffffffffffffffffffffffffffffff1614610dfe576040517f08c379a0000000000000000000000000000000000000000000000000000000008152600401610df590612d61565b60405180910390fd5b6001600460008373ffffffffffffffffffffffffffffffffffffffff1673ffffffffffffffffffffffffffffffffffffffff16815260200190815260200160002060006101000a81548160ff02191690831515021790555050565b6000600460008373ffffffffffffffffffffffffffffffffffffffff1673ffffffffffffffffffffffffffffffffffffffff16815260200190815260200160002060009054906101000a900460ff169050919050565b610eb76120cb565b73ffffffffffffffffffffffffffffffffffffffff16610ed5611507565b73ffffffffffffffffffffffffffffffffffffffff1614610f2b576040517f08c379a0000000000000000000000000000000000000000000000000000000008152600401610f2290612d61565b60405180910390fd5b610f35600061228a565b565b606060006006541415610f4957600080fd5b600060065467ffffffffffffffff811115610f8d577f4e487b7100000000000000000000000000000000000000000000000000000000600052604160045260246000fd5b604051908082528060200260200182016040528015610fc657816020015b610fb36123d4565b815260200190600190039081610fab5790505b50905060005b6006548110156114ff576000600560076000848152602001908152602001600020604051610ffa9190612bf1565b90815260200160405180910390209050806040518061010001604052908160008201805461102790612f91565b80601f016020809104026020016040519081016040528092919081815260200182805461105390612f91565b80156110a05780601f10611075576101008083540402835291602001916110a0565b820191906000526020600020905b81548152906001019060200180831161108357829003601f168201915b505050505081526020016001820180546110b990612f91565b80601f01602080910402602001604051908101604052809291908181526020018280546110e590612f91565b80156111325780601f1061110757610100808354040283529160200191611132565b820191906000526020600020905b81548152906001019060200180831161111557829003601f168201915b5050505050815260200160028201805461114b90612f91565b80601f016020809104026020016040519081016040528092919081815260200182805461117790612f91565b80156111c45780601f10611199576101008083540402835291602001916111c4565b820191906000526020600020905b8154815290600101906020018083116111a757829003601f168201915b505050505081526020016003820180546111dd90612f91565b80601f016020809104026020016040519081016040528092919081815260200182805461120990612f91565b80156112565780601f1061122b57610100808354040283529160200191611256565b820191906000526020600020905b81548152906001019060200180831161123957829003601f168201915b5050505050815260200160048201805461126f90612f91565b80601f016020809104026020016040519081016040528092919081815260200182805461129b90612f91565b80156112e85780601f106112bd576101008083540402835291602001916112e8565b820191906000526020600020905b8154815290600101906020018083116112cb57829003601f168201915b5050505050815260200160058201805461130190612f91565b80601f016020809104026020016040519081016040528092919081815260200182805461132d90612f91565b801561137a5780601f1061134f5761010080835404028352916020019161137a565b820191906000526020600020905b81548152906001019060200180831161135d57829003601f168201915b5050505050815260200160068201805461139390612f91565b80601f01602080910402602001604051908101604052809291908181526020018280546113bf90612f91565b801561140c5780601f106113e15761010080835404028352916020019161140c565b820191906000526020600020905b8154815290600101906020018083116113ef57829003601f168201915b5050505050815260200160078201805461142590612f91565b80601f016020809104026020016040519081016040528092919081815260200182805461145190612f91565b801561149e5780601f106114735761010080835404028352916020019161149e565b820191906000526020600020905b81548152906001019060200180831161148157829003601f168201915b5050505050815250508383815181106114e0577f4e487b7100000000000000000000000000000000000000000000000000000000600052603260045260246000fd5b60200260200101819052505080806114f790612ff4565b915050610fcc565b508091505090565b60008060009054906101000a900473ffffffffffffffffffffffffffffffffffffffff16905090565b6115386120cb565b73ffffffffffffffffffffffffffffffffffffffff16611556611507565b73ffffffffffffffffffffffffffffffffffffffff16146115ac576040517f08c379a00000000000000000000000000000000000000000000000000000000081526004016115a390612d61565b60405180910390fd5b6000600460008373ffffffffffffffffffffffffffffffffffffffff1673ffffffffffffffffffffffffffffffffffffffff16815260200190815260200160002060006101000a81548160ff02191690831515021790555050565b600160003373ffffffffffffffffffffffffffffffffffffffff1673ffffffffffffffffffffffffffffffffffffffff16815260200190815260200160002060030160009054906101000a900460ff1661166057600080fd5b6116698261219e565b1561167357600080fd5b61167c816105fd565b1561168657600080fd5b604051806080016040528060025481526020018373ffffffffffffffffffffffffffffffffffffffff16815260200182815260200160001515815250600160008473ffffffffffffffffffffffffffffffffffffffff1673ffffffffffffffffffffffffffffffffffffffff1681526020019081526020016000206000820151816000015560208201518160010160006101000a81548173ffffffffffffffffffffffffffffffffffffffff021916908373ffffffffffffffffffffffffffffffffffffffff160217905550604082015181600201908051906020019061176e92919061234e565b5060608201518160030160006101000a81548160ff0219169083151502179055509050508160036000600254815260200190815260200160002060006101000a81548173ffffffffffffffffffffffffffffffffffffffff021916908373ffffffffffffffffffffffffffffffffffffffff1602179055506001600260008282546117f99190612eb1565b925050819055505050565b60065481565b60006060600080600160008673ffffffffffffffffffffffffffffffffffffffff1673ffffffffffffffffffffffffffffffffffffffff168152602001908152602001600020604051806080016040529081600082015481526020016001820160009054906101000a900473ffffffffffffffffffffffffffffffffffffffff1673ffffffffffffffffffffffffffffffffffffffff1673ffffffffffffffffffffffffffffffffffffffff1681526020016002820180546118cb90612f91565b80601f01602080910402602001604051908101604052809291908181526020018280546118f790612f91565b80156119445780601f1061191957610100808354040283529160200191611944565b820191906000526020600020905b81548152906001019060200180831161192757829003601f168201915b505050505081526020016003820160009054906101000a900460ff1615151515815250509050806020015181604001518260600151935093509350509193909250565b60025481565b600115156004600061199d6120cb565b73ffffffffffffffffffffffffffffffffffffffff1673ffffffffffffffffffffffffffffffffffffffff16815260200190815260200160002060009054906101000a900460ff1615151480611a2c57506119f6611507565b73ffffffffffffffffffffffffffffffffffffffff16611a146120cb565b73ffffffffffffffffffffffffffffffffffffffff16145b611a6b576040517f08c379a0000000000000000000000000000000000000000000000000000000008152600401611a6290612d41565b60405180910390fd5b611a74886120d3565b15611a7e57600080fd5b611a873361219e565b611a9057600080fd5b60405180610100016040528089815260200188815260200187815260200186815260200185815260200184815260200183815260200182815250600589604051611ada9190612bda565b90815260200160405180910390206000820151816000019080519060200190611b0492919061234e565b506020820151816001019080519060200190611b2192919061234e565b506040820151816002019080519060200190611b3e92919061234e565b506060820151816003019080519060200190611b5b92919061234e565b506080820151816004019080519060200190611b7892919061234e565b5060a0820151816005019080519060200190611b9592919061234e565b5060c0820151816006019080519060200190611bb292919061234e565b5060e0820151816007019080519060200190611bcf92919061234e565b50905050876007600060065481526020019081526020016000209080519060200190611bfc92919061234e565b50600160066000828254611c109190612eb1565b925050819055505050505050505050565b6060600060025467ffffffffffffffff811115611c67577f4e487b7100000000000000000000000000000000000000000000000000000000600052604160045260246000fd5b604051908082528060200260200182016040528015611ca057816020015b611c8d612419565b815260200190600190039081611c855790505b50905060005b600254811015611e97576000600160006003600085815260200190815260200160002060009054906101000a900473ffffffffffffffffffffffffffffffffffffffff1673ffffffffffffffffffffffffffffffffffffffff1673ffffffffffffffffffffffffffffffffffffffff168152602001908152602001600020905080604051806080016040529081600082015481526020016001820160009054906101000a900473ffffffffffffffffffffffffffffffffffffffff1673ffffffffffffffffffffffffffffffffffffffff1673ffffffffffffffffffffffffffffffffffffffff168152602001600282018054611da290612f91565b80601f0160208091040260200160405190810160405280929190818152602001828054611dce90612f91565b8015611e1b5780601f10611df057610100808354040283529160200191611e1b565b820191906000526020600020905b815481529060010190602001808311611dfe57829003601f168201915b505050505081526020016003820160009054906101000a900460ff161515151581525050838381518110611e78577f4e487b7100000000000000000000000000000000000000000000000000000000600052603260045260246000fd5b6020026020010181905250508080611e8f90612ff4565b915050611ca6565b508091505090565b611ea76120cb565b73ffffffffffffffffffffffffffffffffffffffff16611ec5611507565b73ffffffffffffffffffffffffffffffffffffffff1614611f1b576040517f08c379a0000000000000000000000000000000000000000000000000000000008152600401611f1290612d61565b60405180910390fd5b600073ffffffffffffffffffffffffffffffffffffffff168173ffffffffffffffffffffffffffffffffffffffff161415611f8b576040517f08c379a0000000000000000000000000000000000000000000000000000000008152600401611f8290612d21565b60405180910390fd5b611f948161228a565b50565b600160003373ffffffffffffffffffffffffffffffffffffffff1673ffffffffffffffffffffffffffffffffffffffff16815260200190815260200160002060030160009054906101000a900460ff16611ff057600080fd5b611ff98361219e565b61200257600080fd5b61200b826105fd565b1561201557600080fd5b81600160008573ffffffffffffffffffffffffffffffffffffffff1673ffffffffffffffffffffffffffffffffffffffff168152602001908152602001600020600201908051906020019061206b92919061234e565b5080600160008573ffffffffffffffffffffffffffffffffffffffff1673ffffffffffffffffffffffffffffffffffffffff16815260200190815260200160002060030160006101000a81548160ff021916908315150217905550505050565b600033905090565b60006121876005836040516120e89190612bda565b9081526020016040518091039020600001805461210490612f91565b80601f016020809104026020016040519081016040528092919081815260200182805461213090612f91565b801561217d5780601f106121525761010080835404028352916020019161217d565b820191906000526020600020905b81548152906001019060200180831161216057829003601f168201915b50505050506105fd565b6121945760019050612199565b600090505b919050565b6000612273600160008473ffffffffffffffffffffffffffffffffffffffff1673ffffffffffffffffffffffffffffffffffffffff16815260200190815260200160002060020180546121f090612f91565b80601f016020809104026020016040519081016040528092919081815260200182805461221c90612f91565b80156122695780601f1061223e57610100808354040283529160200191612269565b820191906000526020600020905b81548152906001019060200180831161224c57829003601f168201915b50505050506105fd565b6122805760019050612285565b600090505b919050565b60008060009054906101000a900473ffffffffffffffffffffffffffffffffffffffff169050816000806101000a81548173ffffffffffffffffffffffffffffffffffffffff021916908373ffffffffffffffffffffffffffffffffffffffff1602179055508173ffffffffffffffffffffffffffffffffffffffff168173ffffffffffffffffffffffffffffffffffffffff167f8be0079c531659141344cd1fd0a4f28419497f9722a3daafe3b4186f6b6457e060405160405180910390a35050565b82805461235a90612f91565b90600052602060002090601f01602090048101928261237c57600085556123c3565b82601f1061239557805160ff19168380011785556123c3565b828001600101855582156123c3579182015b828111156123c25782518255916020019190600101906123a7565b5b5090506123d09190612459565b5090565b60405180610100016040528060608152602001606081526020016060815260200160608152602001606081526020016060815260200160608152602001606081525090565b604051806080016040528060008152602001600073ffffffffffffffffffffffffffffffffffffffff168152602001606081526020016000151581525090565b5b8082111561247257600081600090555060010161245a565b5090565b600061248961248484612dc1565b612d9c565b9050828152602081018484840111156124a157600080fd5b6124ac848285612f4f565b509392505050565b6000813590506124c38161317c565b92915050565b6000813590506124d881613193565b92915050565b600082601f8301126124ef57600080fd5b81356124ff848260208601612476565b91505092915050565b60006020828403121561251a57600080fd5b6000612528848285016124b4565b91505092915050565b6000806040838503121561254457600080fd5b6000612552858286016124b4565b925050602083013567ffffffffffffffff81111561256f57600080fd5b61257b858286016124de565b9150509250929050565b60008060006060848603121561259a57600080fd5b60006125a8868287016124b4565b935050602084013567ffffffffffffffff8111156125c557600080fd5b6125d1868287016124de565b92505060406125e2868287016124c9565b9150509250925092565b6000602082840312156125fe57600080fd5b600082013567ffffffffffffffff81111561261857600080fd5b612624848285016124de565b91505092915050565b600080600080600080600080610100898b03121561264a57600080fd5b600089013567ffffffffffffffff81111561266457600080fd5b6126708b828c016124de565b985050602089013567ffffffffffffffff81111561268d57600080fd5b6126998b828c016124de565b975050604089013567ffffffffffffffff8111156126b657600080fd5b6126c28b828c016124de565b965050606089013567ffffffffffffffff8111156126df57600080fd5b6126eb8b828c016124de565b955050608089013567ffffffffffffffff81111561270857600080fd5b6127148b828c016124de565b94505060a089013567ffffffffffffffff81111561273157600080fd5b61273d8b828c016124de565b93505060c089013567ffffffffffffffff81111561275a57600080fd5b6127668b828c016124de565b92505060e089013567ffffffffffffffff81111561278357600080fd5b61278f8b828c016124de565b9150509295985092959890939650565b60006127ab8383612a78565b905092915050565b60006127bf8383612adb565b905092915050565b6127d081612f07565b82525050565b6127df81612f07565b82525050565b60006127f082612e27565b6127fa8185612e62565b93508360208202850161280c85612df2565b8060005b858110156128485784840389528151612829858261279f565b945061283483612e48565b925060208a01995050600181019050612810565b50829750879550505050505092915050565b600061286582612e32565b61286f8185612e73565b93508360208202850161288185612e02565b8060005b858110156128bd578484038952815161289e85826127b3565b94506128a983612e55565b925060208a01995050600181019050612885565b50829750879550505050505092915050565b6128d881612f19565b82525050565b6128e781612f19565b82525050565b60006128f882612e3d565b6129028185612e84565b9350612912818560208601612f5e565b61291b816130ca565b840191505092915050565b600061293182612e3d565b61293b8185612e95565b935061294b818560208601612f5e565b612954816130ca565b840191505092915050565b600061296a82612e3d565b6129748185612ea6565b9350612984818560208601612f5e565b80840191505092915050565b6000815461299d81612f91565b6129a78186612ea6565b945060018216600081146129c257600181146129d357612a06565b60ff19831686528186019350612a06565b6129dc85612e12565b60005b838110156129fe578154818901526001820191506020810190506129df565b838801955050505b50505092915050565b6000612a1c602683612e95565b9150612a27826130db565b604082019050919050565b6000612a3f601a83612e95565b9150612a4a8261312a565b602082019050919050565b6000612a62602083612e95565b9150612a6d82613153565b602082019050919050565b6000608083016000830151612a906000860182612bbc565b506020830151612aa360208601826127c7565b5060408301518482036040860152612abb82826128ed565b9150506060830151612ad060608601826128cf565b508091505092915050565b6000610100830160008301518482036000860152612af982826128ed565b91505060208301518482036020860152612b1382826128ed565b91505060408301518482036040860152612b2d82826128ed565b91505060608301518482036060860152612b4782826128ed565b91505060808301518482036080860152612b6182826128ed565b91505060a083015184820360a0860152612b7b82826128ed565b91505060c083015184820360c0860152612b9582826128ed565b91505060e083015184820360e0860152612baf82826128ed565b9150508091505092915050565b612bc581612f45565b82525050565b612bd481612f45565b82525050565b6000612be6828461295f565b915081905092915050565b6000612bfd8284612990565b915081905092915050565b6000602082019050612c1d60008301846127d6565b92915050565b6000606082019050612c3860008301866127d6565b8181036020830152612c4a8185612926565b9050612c5960408301846128de565b949350505050565b60006020820190508181036000830152612c7b81846127e5565b905092915050565b60006020820190508181036000830152612c9d818461285a565b905092915050565b6000602082019050612cba60008301846128de565b92915050565b60006080820190508181036000830152612cda8187612926565b90508181036020830152612cee8186612926565b90508181036040830152612d028185612926565b90508181036060830152612d168184612926565b905095945050505050565b60006020820190508181036000830152612d3a81612a0f565b9050919050565b60006020820190508181036000830152612d5a81612a32565b9050919050565b60006020820190508181036000830152612d7a81612a55565b9050919050565b6000602082019050612d966000830184612bcb565b92915050565b6000612da6612db7565b9050612db28282612fc3565b919050565b6000604051905090565b600067ffffffffffffffff821115612ddc57612ddb61309b565b5b612de5826130ca565b9050602081019050919050565b6000819050602082019050919050565b6000819050602082019050919050565b60008190508160005260206000209050919050565b600081519050919050565b600081519050919050565b600081519050919050565b6000602082019050919050565b6000602082019050919050565b600082825260208201905092915050565b600082825260208201905092915050565b600082825260208201905092915050565b600082825260208201905092915050565b600081905092915050565b6000612ebc82612f45565b9150612ec783612f45565b9250827fffffffffffffffffffffffffffffffffffffffffffffffffffffffffffffffff03821115612efc57612efb61303d565b5b828201905092915050565b6000612f1282612f25565b9050919050565b60008115159050919050565b600073ffffffffffffffffffffffffffffffffffffffff82169050919050565b6000819050919050565b82818337600083830152505050565b60005b83811015612f7c578082015181840152602081019050612f61565b83811115612f8b576000848401525b50505050565b60006002820490506001821680612fa957607f821691505b60208210811415612fbd57612fbc61306c565b5b50919050565b612fcc826130ca565b810181811067ffffffffffffffff82111715612feb57612fea61309b565b5b80604052505050565b6000612fff82612f45565b91507fffffffffffffffffffffffffffffffffffffffffffffffffffffffffffffffff8214156130325761303161303d565b5b600182019050919050565b7f4e487b7100000000000000000000000000000000000000000000000000000000600052601160045260246000fd5b7f4e487b7100000000000000000000000000000000000000000000000000000000600052602260045260246000fd5b7f4e487b7100000000000000000000000000000000000000000000000000000000600052604160045260246000fd5b6000601f19601f8301169050919050565b7f4f776e61626c653a206e6577206f776e657220697320746865207a65726f206160008201527f6464726573730000000000000000000000000000000000000000000000000000602082015250565b7f43616c6c6572206973206e6f742074686520417070726f766572000000000000600082015250565b7f4f776e61626c653a2063616c6c6572206973206e6f7420746865206f776e6572600082015250565b61318581612f07565b811461319057600080fd5b50565b61319c81612f19565b81146131a757600080fd5b5056fea264697066735822122099a09c448e624aea351538b689786b8b5fa213c9df84e5b7c49218df64e7b12c64736f6c63430008040033",
  "linkReferences": {},
  "deployedLinkReferences": {}
}