{
  "_format": "hh-sol-artifact-1",
  "contractName": "BangDaiHoc",
  "sourceName": "contracts/BangDaiHoc.sol",
  "abi": [
    {
      "inputs": [],
      "stateMutability": "nonpayable",
      "type": "constructor"
    },
    {
      "anonymous": false,
      "inputs": [
        {
          "indexed": true,
          "internalType": "address",
          "name": "previousOwner",
          "type": "address"
        },
        {
          "indexed": true,
          "internalType": "address",
          "name": "newOwner",
          "type": "address"
        }
      ],
      "name": "OwnershipTransferred",
      "type": "event"
    },
    {
      "inputs": [
        {
          "internalType": "address",
          "name": "diaChi",
          "type": "address"
        },
        {
          "internalType": "string",
          "name": "ten",
          "type": "string"
        },
        {
          "internalType": "string",
          "name": "hashinfo",
          "type": "string"
        },
        {
          "internalType": "uint256",
          "name": "Role",
          "type": "uint256"
        }
      ],
      "name": "ChinhSuaNguoiDung",
      "outputs": [],
      "stateMutability": "nonpayable",
      "type": "function"
    },
    {
      "inputs": [
        {
          "internalType": "string",
          "name": "maSV",
          "type": "string"
        },
        {
          "internalType": "string",
          "name": "tenSV",
          "type": "string"
        },
        {
          "internalType": "string",
          "name": "ngaySinh",
          "type": "string"
        },
        {
          "internalType": "string",
          "name": "gioiTinh",
          "type": "string"
        },
        {
          "internalType": "string",
          "name": "noiSinh",
          "type": "string"
        },
        {
          "internalType": "string",
          "name": "danToc",
          "type": "string"
        },
        {
          "internalType": "string",
          "name": "quocTich",
          "type": "string"
        },
        {
          "internalType": "string",
          "name": "lop",
          "type": "string"
        },
        {
          "internalType": "string",
          "name": "hashinfo",
          "type": "string"
        },
        {
          "internalType": "address",
          "name": "owneraddr",
          "type": "address"
        },
        {
          "internalType": "uint256",
          "name": "secretkey",
          "type": "uint256"
        }
      ],
      "name": "ChinhSuaSinhVien",
      "outputs": [],
      "stateMutability": "nonpayable",
      "type": "function"
    },
    {
      "inputs": [
        {
          "internalType": "string",
          "name": "maSV",
          "type": "string"
        },
        {
          "internalType": "string",
          "name": "SoHieu",
          "type": "string"
        },
        {
          "internalType": "string",
          "name": "namTotNghiep",
          "type": "string"
        },
        {
          "internalType": "string",
          "name": "xepLoai",
          "type": "string"
        },
        {
          "internalType": "string",
          "name": "hinhThucDaoTao",
          "type": "string"
        },
        {
          "internalType": "string",
          "name": "ngayCap",
          "type": "string"
        },
        {
          "internalType": "string",
          "name": "soVaoSo",
          "type": "string"
        },
        {
          "internalType": "string",
          "name": "hashpoint",
          "type": "string"
        },
        {
          "internalType": "address",
          "name": "owneraddress",
          "type": "address"
        },
        {
          "internalType": "uint256",
          "name": "secretkey",
          "type": "uint256"
        }
      ],
      "name": "ChinhsuaBang",
      "outputs": [],
      "stateMutability": "nonpayable",
      "type": "function"
    },
    {
      "inputs": [
        {
          "internalType": "string",
          "name": "Chuoi",
          "type": "string"
        }
      ],
      "name": "ChuoiRong",
      "outputs": [
        {
          "internalType": "bool",
          "name": "",
          "type": "bool"
        }
      ],
      "stateMutability": "pure",
      "type": "function"
    },
    {
      "inputs": [],
      "name": "DanhsachnguoidungHeThong",
      "outputs": [
        {
          "components": [
            {
              "internalType": "uint256",
              "name": "id",
              "type": "uint256"
            },
            {
              "internalType": "address",
              "name": "DiaChi",
              "type": "address"
            },
            {
              "internalType": "string",
              "name": "Ten",
              "type": "string"
            },
            {
              "internalType": "string",
              "name": "hashinfo",
              "type": "string"
            },
            {
              "internalType": "uint256",
              "name": "Role",
              "type": "uint256"
            }
          ],
          "internalType": "struct BangDaiHoc.NguoiDung[]",
          "name": "",
          "type": "tuple[]"
        }
      ],
      "stateMutability": "view",
      "type": "function"
    },
    {
      "inputs": [],
      "name": "Danhsachsinhvien",
      "outputs": [
        {
          "components": [
            {
              "internalType": "string",
              "name": "MaSV",
              "type": "string"
            },
            {
              "internalType": "string",
              "name": "TenSV",
              "type": "string"
            },
            {
              "internalType": "string",
              "name": "NgaySinh",
              "type": "string"
            },
            {
              "internalType": "string",
              "name": "GioiTinh",
              "type": "string"
            },
            {
              "internalType": "string",
              "name": "NoiSinh",
              "type": "string"
            },
            {
              "internalType": "string",
              "name": "DanToc",
              "type": "string"
            },
            {
              "internalType": "string",
              "name": "QuocTich",
              "type": "string"
            },
            {
              "internalType": "string",
              "name": "Lop",
              "type": "string"
            },
            {
              "internalType": "string",
              "name": "Hashinfo",
              "type": "string"
            },
            {
              "internalType": "address",
              "name": "Owneraddr",
              "type": "address"
            },
            {
              "internalType": "uint256",
              "name": "Secretkey",
              "type": "uint256"
            }
          ],
          "internalType": "struct BangDaiHoc.SinhVien[]",
          "name": "",
          "type": "tuple[]"
        }
      ],
      "stateMutability": "view",
      "type": "function"
    },
    {
      "inputs": [
        {
          "internalType": "string",
          "name": "_masv",
          "type": "string"
        },
        {
          "internalType": "uint256",
          "name": "secret",
          "type": "uint256"
        }
      ],
      "name": "Setsecretkey_qlsv",
      "outputs": [
        {
          "internalType": "bool",
          "name": "",
          "type": "bool"
        }
      ],
      "stateMutability": "nonpayable",
      "type": "function"
    },
    {
      "inputs": [
        {
          "internalType": "string",
          "name": "_sohieu",
          "type": "string"
        },
        {
          "internalType": "uint256",
          "name": "secret",
          "type": "uint256"
        }
      ],
      "name": "Setsecretkey_qlvb",
      "outputs": [
        {
          "internalType": "bool",
          "name": "",
          "type": "bool"
        }
      ],
      "stateMutability": "nonpayable",
      "type": "function"
    },
    {
      "inputs": [
        {
          "internalType": "string",
          "name": "maSV",
          "type": "string"
        },
        {
          "internalType": "string",
          "name": "SoHieu",
          "type": "string"
        },
        {
          "internalType": "string",
          "name": "namTotNghiep",
          "type": "string"
        },
        {
          "internalType": "string",
          "name": "xepLoai",
          "type": "string"
        },
        {
          "internalType": "string",
          "name": "hinhThucDaoTao",
          "type": "string"
        },
        {
          "internalType": "string",
          "name": "ngayCap",
          "type": "string"
        },
        {
          "internalType": "string",
          "name": "soVaoSo",
          "type": "string"
        },
        {
          "internalType": "string",
          "name": "hashpoint",
          "type": "string"
        },
        {
          "internalType": "address",
          "name": "owneraddress",
          "type": "address"
        },
        {
          "internalType": "uint256",
          "name": "secretkey",
          "type": "uint256"
        }
      ],
      "name": "ThemBang",
      "outputs": [],
      "stateMutability": "nonpayable",
      "type": "function"
    },
    {
      "inputs": [
        {
          "internalType": "address",
          "name": "diaChi",
          "type": "address"
        },
        {
          "internalType": "string",
          "name": "ten",
          "type": "string"
        },
        {
          "internalType": "string",
          "name": "hashinfo",
          "type": "string"
        }
      ],
      "name": "ThemNguoiDung",
      "outputs": [],
      "stateMutability": "nonpayable",
      "type": "function"
    },
    {
      "inputs": [
        {
          "internalType": "string",
          "name": "maSV",
          "type": "string"
        },
        {
          "internalType": "string",
          "name": "tenSV",
          "type": "string"
        },
        {
          "internalType": "string",
          "name": "ngaySinh",
          "type": "string"
        },
        {
          "internalType": "string",
          "name": "gioiTinh",
          "type": "string"
        },
        {
          "internalType": "string",
          "name": "noiSinh",
          "type": "string"
        },
        {
          "internalType": "string",
          "name": "danToc",
          "type": "string"
        },
        {
          "internalType": "string",
          "name": "quocTich",
          "type": "string"
        },
        {
          "internalType": "string",
          "name": "lop",
          "type": "string"
        },
        {
          "internalType": "string",
          "name": "hashinfo",
          "type": "string"
        },
        {
          "internalType": "address",
          "name": "owneraddr",
          "type": "address"
        },
        {
          "internalType": "uint256",
          "name": "secretkey",
          "type": "uint256"
        }
      ],
      "name": "ThemSinhVien",
      "outputs": [],
      "stateMutability": "nonpayable",
      "type": "function"
    },
    {
      "inputs": [
        {
          "internalType": "string",
          "name": "_SoHieu",
          "type": "string"
        }
      ],
      "name": "TimBang",
      "outputs": [
        {
          "internalType": "string",
          "name": "maSV",
          "type": "string"
        },
        {
          "internalType": "string",
          "name": "sohieu",
          "type": "string"
        },
        {
          "internalType": "string",
          "name": "namTotNghiep",
          "type": "string"
        },
        {
          "internalType": "string",
          "name": "xepLoai",
          "type": "string"
        },
        {
          "internalType": "string",
          "name": "hinhThucDaoTao",
          "type": "string"
        },
        {
          "internalType": "string",
          "name": "ngayCap",
          "type": "string"
        },
        {
          "internalType": "string",
          "name": "soVaoSo",
          "type": "string"
        },
        {
          "internalType": "string",
          "name": "hashpoint",
          "type": "string"
        },
        {
          "internalType": "string",
          "name": "ten",
          "type": "string"
        },
        {
          "internalType": "string",
          "name": "ngaysinh",
          "type": "string"
        }
      ],
      "stateMutability": "view",
      "type": "function"
    },
    {
      "inputs": [
        {
          "internalType": "string",
          "name": "_SoHieu",
          "type": "string"
        },
        {
          "internalType": "uint256",
          "name": "secretkey",
          "type": "uint256"
        }
      ],
      "name": "TimBang_withsecretkey",
      "outputs": [
        {
          "internalType": "string",
          "name": "maSV",
          "type": "string"
        },
        {
          "internalType": "string",
          "name": "sohieu",
          "type": "string"
        },
        {
          "internalType": "string",
          "name": "namTotNghiep",
          "type": "string"
        },
        {
          "internalType": "string",
          "name": "xepLoai",
          "type": "string"
        },
        {
          "internalType": "string",
          "name": "hinhThucDaoTao",
          "type": "string"
        },
        {
          "internalType": "string",
          "name": "ngayCap",
          "type": "string"
        },
        {
          "internalType": "string",
          "name": "soVaoSo",
          "type": "string"
        },
        {
          "internalType": "string",
          "name": "hashpoint",
          "type": "string"
        },
        {
          "internalType": "string",
          "name": "ten",
          "type": "string"
        },
        {
          "internalType": "string",
          "name": "ngaysinh",
          "type": "string"
        }
      ],
      "stateMutability": "view",
      "type": "function"
    },
    {
      "inputs": [
        {
          "internalType": "address",
          "name": "diaChi",
          "type": "address"
        }
      ],
      "name": "TimNguoiDung",
      "outputs": [
        {
          "internalType": "address",
          "name": "diachi",
          "type": "address"
        },
        {
          "internalType": "string",
          "name": "ten",
          "type": "string"
        },
        {
          "internalType": "string",
          "name": "hashinfo",
          "type": "string"
        },
        {
          "internalType": "uint256",
          "name": "role",
          "type": "uint256"
        }
      ],
      "stateMutability": "view",
      "type": "function"
    },
    {
      "inputs": [
        {
          "internalType": "string",
          "name": "_masv",
          "type": "string"
        }
      ],
      "name": "TimSinhVien",
      "outputs": [
        {
          "internalType": "string",
          "name": "MaSV",
          "type": "string"
        },
        {
          "internalType": "string",
          "name": "TenSV",
          "type": "string"
        },
        {
          "internalType": "string",
          "name": "NgaySinh",
          "type": "string"
        },
        {
          "internalType": "string",
          "name": "GioiTinh",
          "type": "string"
        },
        {
          "internalType": "string",
          "name": "NoiSinh",
          "type": "string"
        },
        {
          "internalType": "string",
          "name": "DanToc",
          "type": "string"
        },
        {
          "internalType": "string",
          "name": "QuocTich",
          "type": "string"
        },
        {
          "internalType": "string",
          "name": "Lop",
          "type": "string"
        },
        {
          "internalType": "string",
          "name": "Hashinfo",
          "type": "string"
        },
        {
          "internalType": "address",
          "name": "Owneraddr",
          "type": "address"
        },
        {
          "internalType": "uint256",
          "name": "Secretkey",
          "type": "uint256"
        }
      ],
      "stateMutability": "view",
      "type": "function"
    },
    {
      "inputs": [
        {
          "internalType": "string",
          "name": "_masv",
          "type": "string"
        },
        {
          "internalType": "uint256",
          "name": "secret",
          "type": "uint256"
        }
      ],
      "name": "TimSinhVien_withsecret",
      "outputs": [
        {
          "internalType": "string",
          "name": "MaSV",
          "type": "string"
        },
        {
          "internalType": "string",
          "name": "TenSV",
          "type": "string"
        },
        {
          "internalType": "string",
          "name": "NgaySinh",
          "type": "string"
        },
        {
          "internalType": "string",
          "name": "GioiTinh",
          "type": "string"
        },
        {
          "internalType": "string",
          "name": "NoiSinh",
          "type": "string"
        },
        {
          "internalType": "string",
          "name": "DanToc",
          "type": "string"
        },
        {
          "internalType": "string",
          "name": "QuocTich",
          "type": "string"
        },
        {
          "internalType": "string",
          "name": "Lop",
          "type": "string"
        },
        {
          "internalType": "string",
          "name": "Hashinfo",
          "type": "string"
        },
        {
          "internalType": "address",
          "name": "Owneraddr",
          "type": "address"
        },
        {
          "internalType": "uint256",
          "name": "Secretkey",
          "type": "uint256"
        }
      ],
      "stateMutability": "view",
      "type": "function"
    },
    {
      "inputs": [],
      "name": "owner",
      "outputs": [
        {
          "internalType": "address",
          "name": "",
          "type": "address"
        }
      ],
      "stateMutability": "view",
      "type": "function"
    },
    {
      "inputs": [],
      "name": "renounceOwnership",
      "outputs": [],
      "stateMutability": "nonpayable",
      "type": "function"
    },
    {
      "inputs": [
        {
          "internalType": "uint256",
          "name": "",
          "type": "uint256"
        }
      ],
      "name": "tblThuTu",
      "outputs": [
        {
          "internalType": "string",
          "name": "",
          "type": "string"
        }
      ],
      "stateMutability": "view",
      "type": "function"
    },
    {
      "inputs": [],
      "name": "totalBang",
      "outputs": [
        {
          "internalType": "uint256",
          "name": "",
          "type": "uint256"
        }
      ],
      "stateMutability": "view",
      "type": "function"
    },
    {
      "inputs": [],
      "name": "totalSV",
      "outputs": [
        {
          "internalType": "uint256",
          "name": "",
          "type": "uint256"
        }
      ],
      "stateMutability": "view",
      "type": "function"
    },
    {
      "inputs": [],
      "name": "totalUser",
      "outputs": [
        {
          "internalType": "uint256",
          "name": "",
          "type": "uint256"
        }
      ],
      "stateMutability": "view",
      "type": "function"
    },
    {
      "inputs": [
        {
          "internalType": "address",
          "name": "newOwner",
          "type": "address"
        }
      ],
      "name": "transferOwnership",
      "outputs": [],
      "stateMutability": "nonpayable",
      "type": "function"
    }
  ],
  "bytecode": "0x60806040526001600255600060055560006007553480156200002057600080fd5b506200004162000035620001f860201b60201c565b6200020060201b60201c565b6040518060a00160405280600081526020013373ffffffffffffffffffffffffffffffffffffffff1681526020016040518060400160405280600a81526020017f535550455241444d494e000000000000000000000000000000000000000000008152508152602001604051806020016040528060008152508152602001610309815250600160003373ffffffffffffffffffffffffffffffffffffffff1673ffffffffffffffffffffffffffffffffffffffff1681526020019081526020016000206000820151816000015560208201518160010160006101000a81548173ffffffffffffffffffffffffffffffffffffffff021916908373ffffffffffffffffffffffffffffffffffffffff160217905550604082015181600201908051906020019062000173929190620002c4565b50606082015181600301908051906020019062000192929190620002c4565b5060808201518160040155905050336003600080815260200190815260200160002060006101000a81548173ffffffffffffffffffffffffffffffffffffffff021916908373ffffffffffffffffffffffffffffffffffffffff160217905550620003d9565b600033905090565b60008060009054906101000a900473ffffffffffffffffffffffffffffffffffffffff169050816000806101000a81548173ffffffffffffffffffffffffffffffffffffffff021916908373ffffffffffffffffffffffffffffffffffffffff1602179055508173ffffffffffffffffffffffffffffffffffffffff168173ffffffffffffffffffffffffffffffffffffffff167f8be0079c531659141344cd1fd0a4f28419497f9722a3daafe3b4186f6b6457e060405160405180910390a35050565b828054620002d29062000374565b90600052602060002090601f016020900481019282620002f6576000855562000342565b82601f106200031157805160ff191683800117855562000342565b8280016001018555821562000342579182015b828111156200034157825182559160200191906001019062000324565b5b50905062000351919062000355565b5090565b5b808211156200037057600081600090555060010162000356565b5090565b600060028204905060018216806200038d57607f821691505b60208210811415620003a457620003a3620003aa565b5b50919050565b7f4e487b7100000000000000000000000000000000000000000000000000000000600052602260045260246000fd5b615f7a80620003e96000396000f3fe608060405234801561001057600080fd5b506004361061014d5760003560e01c80638da5cb5b116100c3578063e1604b701161007c578063e1604b7014610401578063e5940a241461041f578063ec75aa711461043b578063f1b50f0714610457578063f2fde38b14610475578063fe7f7ad3146104915761014d565b80638da5cb5b146102ef578063933646cf1461030d578063bf817f9a1461032b578063c7f76aae14610364578063cc501f081461039e578063d371481a146103ce5761014d565b8063407730d911610115578063407730d91461022d578063506d3d8f1461024b57806355422c651461027b57806355707b6614610297578063715018a6146102c757806383a1a899146102d15761014d565b80630616d2a114610152578063097385301461018b57806316480ab1146101a757806327e9b678146101d757806332a7640514610211575b600080fd5b61016c60048036038101906101679190615335565b6104ad565b6040516101829a99989796959493929190615a22565b60405180910390f35b6101a560048036038101906101a0919061516d565b611012565b005b6101c160048036038101906101bc9190614f91565b611300565b6040516101ce91906158fb565b60405180910390f35b6101f160048036038101906101ec9190614f91565b611325565b6040516102089b9a99989796959493929190615938565b60405180910390f35b61022b60048036038101906102269190614e7f565b6119e2565b005b610235611be2565b6040516102429190615b44565b60405180910390f35b61026560048036038101906102609190615335565b611be8565b60405161027291906158fb565b60405180910390f35b61029560048036038101906102909190614efe565b611d2e565b005b6102b160048036038101906102ac9190615335565b611e9e565b6040516102be91906158fb565b60405180910390f35b6102cf611fe3565b005b6102d961206b565b6040516102e691906158d9565b60405180910390f35b6102f76127c9565b6040516103049190615849565b60405180910390f35b6103156127f2565b6040516103229190615b44565b60405180910390f35b61034560048036038101906103409190614f91565b6127f8565b60405161035b9a99989796959493929190615a22565b60405180910390f35b61037e60048036038101906103799190615335565b6133cb565b6040516103959b9a99989796959493929190615938565b60405180910390f35b6103b860048036038101906103b39190615389565b613a1a565b6040516103c59190615916565b60405180910390f35b6103e860048036038101906103e39190614e56565b613aba565b6040516103f89493929190615864565b60405180910390f35b610409613cc0565b6040516104169190615b44565b60405180910390f35b61043960048036038101906104349190614fd2565b613cc6565b005b6104556004803603810190610450919061516d565b613f5d565b005b61045f614260565b60405161046c91906158b7565b60405180910390f35b61048f600480360381019061048a9190614e56565b61455f565b005b6104ab60048036038101906104a69190614fd2565b614657565b005b6060806060806060806060806060808a60098d6040516104cd919061581b565b908152602001604051809103902060090154146104e957600080fd5b600060098d6040516104fb919061581b565b90815260200160405180910390206040518061014001604052908160008201805461052590615d54565b80601f016020809104026020016040519081016040528092919081815260200182805461055190615d54565b801561059e5780601f106105735761010080835404028352916020019161059e565b820191906000526020600020905b81548152906001019060200180831161058157829003601f168201915b505050505081526020016001820180546105b790615d54565b80601f01602080910402602001604051908101604052809291908181526020018280546105e390615d54565b80156106305780601f1061060557610100808354040283529160200191610630565b820191906000526020600020905b81548152906001019060200180831161061357829003601f168201915b5050505050815260200160028201805461064990615d54565b80601f016020809104026020016040519081016040528092919081815260200182805461067590615d54565b80156106c25780601f10610697576101008083540402835291602001916106c2565b820191906000526020600020905b8154815290600101906020018083116106a557829003601f168201915b505050505081526020016003820180546106db90615d54565b80601f016020809104026020016040519081016040528092919081815260200182805461070790615d54565b80156107545780601f1061072957610100808354040283529160200191610754565b820191906000526020600020905b81548152906001019060200180831161073757829003601f168201915b5050505050815260200160048201805461076d90615d54565b80601f016020809104026020016040519081016040528092919081815260200182805461079990615d54565b80156107e65780601f106107bb576101008083540402835291602001916107e6565b820191906000526020600020905b8154815290600101906020018083116107c957829003601f168201915b505050505081526020016005820180546107ff90615d54565b80601f016020809104026020016040519081016040528092919081815260200182805461082b90615d54565b80156108785780601f1061084d57610100808354040283529160200191610878565b820191906000526020600020905b81548152906001019060200180831161085b57829003601f168201915b5050505050815260200160068201805461089190615d54565b80601f01602080910402602001604051908101604052809291908181526020018280546108bd90615d54565b801561090a5780601f106108df5761010080835404028352916020019161090a565b820191906000526020600020905b8154815290600101906020018083116108ed57829003601f168201915b5050505050815260200160078201805461092390615d54565b80601f016020809104026020016040519081016040528092919081815260200182805461094f90615d54565b801561099c5780601f106109715761010080835404028352916020019161099c565b820191906000526020600020905b81548152906001019060200180831161097f57829003601f168201915b505050505081526020016008820160009054906101000a900473ffffffffffffffffffffffffffffffffffffffff1673ffffffffffffffffffffffffffffffffffffffff1673ffffffffffffffffffffffffffffffffffffffff1681526020016009820154815250509050600060048260000151604051610a1d919061581b565b908152602001604051809103902060405180610160016040529081600082018054610a4790615d54565b80601f0160208091040260200160405190810160405280929190818152602001828054610a7390615d54565b8015610ac05780601f10610a9557610100808354040283529160200191610ac0565b820191906000526020600020905b815481529060010190602001808311610aa357829003601f168201915b50505050508152602001600182018054610ad990615d54565b80601f0160208091040260200160405190810160405280929190818152602001828054610b0590615d54565b8015610b525780601f10610b2757610100808354040283529160200191610b52565b820191906000526020600020905b815481529060010190602001808311610b3557829003601f168201915b50505050508152602001600282018054610b6b90615d54565b80601f0160208091040260200160405190810160405280929190818152602001828054610b9790615d54565b8015610be45780601f10610bb957610100808354040283529160200191610be4565b820191906000526020600020905b815481529060010190602001808311610bc757829003601f168201915b50505050508152602001600382018054610bfd90615d54565b80601f0160208091040260200160405190810160405280929190818152602001828054610c2990615d54565b8015610c765780601f10610c4b57610100808354040283529160200191610c76565b820191906000526020600020905b815481529060010190602001808311610c5957829003601f168201915b50505050508152602001600482018054610c8f90615d54565b80601f0160208091040260200160405190810160405280929190818152602001828054610cbb90615d54565b8015610d085780601f10610cdd57610100808354040283529160200191610d08565b820191906000526020600020905b815481529060010190602001808311610ceb57829003601f168201915b50505050508152602001600582018054610d2190615d54565b80601f0160208091040260200160405190810160405280929190818152602001828054610d4d90615d54565b8015610d9a5780601f10610d6f57610100808354040283529160200191610d9a565b820191906000526020600020905b815481529060010190602001808311610d7d57829003601f168201915b50505050508152602001600682018054610db390615d54565b80601f0160208091040260200160405190810160405280929190818152602001828054610ddf90615d54565b8015610e2c5780601f10610e0157610100808354040283529160200191610e2c565b820191906000526020600020905b815481529060010190602001808311610e0f57829003601f168201915b50505050508152602001600782018054610e4590615d54565b80601f0160208091040260200160405190810160405280929190818152602001828054610e7190615d54565b8015610ebe5780601f10610e9357610100808354040283529160200191610ebe565b820191906000526020600020905b815481529060010190602001808311610ea157829003601f168201915b50505050508152602001600882018054610ed790615d54565b80601f0160208091040260200160405190810160405280929190818152602001828054610f0390615d54565b8015610f505780601f10610f2557610100808354040283529160200191610f50565b820191906000526020600020905b815481529060010190602001808311610f3357829003601f168201915b505050505081526020016009820160009054906101000a900473ffffffffffffffffffffffffffffffffffffffff1673ffffffffffffffffffffffffffffffffffffffff1673ffffffffffffffffffffffffffffffffffffffff168152602001600a820154815250509050816000015182602001518360400151846060015185608001518660a001518760c001518860e00151886020015189604001519b509b509b509b509b509b509b509b509b509b5050509295989b9194979a5092959850565b61101b8b61491e565b1561102557600080fd5b61102e336149e9565b61103757600080fd5b60018060003373ffffffffffffffffffffffffffffffffffffffff1673ffffffffffffffffffffffffffffffffffffffff1681526020019081526020016000206004015414806110ca5750610309600160003373ffffffffffffffffffffffffffffffffffffffff1673ffffffffffffffffffffffffffffffffffffffff16815260200190815260200160002060040154145b6110d357600080fd5b6040518061016001604052808c81526020018b81526020018a81526020018981526020018881526020018781526020018681526020018581526020018481526020018373ffffffffffffffffffffffffffffffffffffffff1681526020018281525060048c604051611145919061581b565b9081526020016040518091039020600082015181600001908051906020019061116f929190614c6c565b50602082015181600101908051906020019061118c929190614c6c565b5060408201518160020190805190602001906111a9929190614c6c565b5060608201518160030190805190602001906111c6929190614c6c565b5060808201518160040190805190602001906111e3929190614c6c565b5060a0820151816005019080519060200190611200929190614c6c565b5060c082015181600601908051906020019061121d929190614c6c565b5060e082015181600701908051906020019061123a929190614c6c565b50610100820151816008019080519060200190611258929190614c6c565b506101208201518160090160006101000a81548173ffffffffffffffffffffffffffffffffffffffff021916908373ffffffffffffffffffffffffffffffffffffffff16021790555061014082015181600a01559050508a60066000600554815260200190815260200160002090805190602001906112d8929190614c6c565b506001600560008282546112ec9190615c74565b925050819055505050505050505050505050565b60008082905060008151141561131a576001915050611320565b60009150505b919050565b606080606080606080606080606060008060018060003373ffffffffffffffffffffffffffffffffffffffff1673ffffffffffffffffffffffffffffffffffffffff1681526020019081526020016000206004015414806113c95750610309600160003373ffffffffffffffffffffffffffffffffffffffff1673ffffffffffffffffffffffffffffffffffffffff16815260200190815260200160002060040154145b6113d257600080fd5b600060048d6040516113e4919061581b565b90815260200160405180910390206040518061016001604052908160008201805461140e90615d54565b80601f016020809104026020016040519081016040528092919081815260200182805461143a90615d54565b80156114875780601f1061145c57610100808354040283529160200191611487565b820191906000526020600020905b81548152906001019060200180831161146a57829003601f168201915b505050505081526020016001820180546114a090615d54565b80601f01602080910402602001604051908101604052809291908181526020018280546114cc90615d54565b80156115195780601f106114ee57610100808354040283529160200191611519565b820191906000526020600020905b8154815290600101906020018083116114fc57829003601f168201915b5050505050815260200160028201805461153290615d54565b80601f016020809104026020016040519081016040528092919081815260200182805461155e90615d54565b80156115ab5780601f10611580576101008083540402835291602001916115ab565b820191906000526020600020905b81548152906001019060200180831161158e57829003601f168201915b505050505081526020016003820180546115c490615d54565b80601f01602080910402602001604051908101604052809291908181526020018280546115f090615d54565b801561163d5780601f106116125761010080835404028352916020019161163d565b820191906000526020600020905b81548152906001019060200180831161162057829003601f168201915b5050505050815260200160048201805461165690615d54565b80601f016020809104026020016040519081016040528092919081815260200182805461168290615d54565b80156116cf5780601f106116a4576101008083540402835291602001916116cf565b820191906000526020600020905b8154815290600101906020018083116116b257829003601f168201915b505050505081526020016005820180546116e890615d54565b80601f016020809104026020016040519081016040528092919081815260200182805461171490615d54565b80156117615780601f1061173657610100808354040283529160200191611761565b820191906000526020600020905b81548152906001019060200180831161174457829003601f168201915b5050505050815260200160068201805461177a90615d54565b80601f01602080910402602001604051908101604052809291908181526020018280546117a690615d54565b80156117f35780601f106117c8576101008083540402835291602001916117f3565b820191906000526020600020905b8154815290600101906020018083116117d657829003601f168201915b5050505050815260200160078201805461180c90615d54565b80601f016020809104026020016040519081016040528092919081815260200182805461183890615d54565b80156118855780601f1061185a57610100808354040283529160200191611885565b820191906000526020600020905b81548152906001019060200180831161186857829003601f168201915b5050505050815260200160088201805461189e90615d54565b80601f01602080910402602001604051908101604052809291908181526020018280546118ca90615d54565b80156119175780601f106118ec57610100808354040283529160200191611917565b820191906000526020600020905b8154815290600101906020018083116118fa57829003601f168201915b505050505081526020016009820160009054906101000a900473ffffffffffffffffffffffffffffffffffffffff1673ffffffffffffffffffffffffffffffffffffffff1673ffffffffffffffffffffffffffffffffffffffff168152602001600a820154815250509050806000015181602001518260400151836060015184608001518560a001518660c001518760e001518861010001518961012001518a61014001519b509b509b509b509b509b509b509b509b509b509b505091939597999b90929496989a50565b610309600160003373ffffffffffffffffffffffffffffffffffffffff1673ffffffffffffffffffffffffffffffffffffffff1681526020019081526020016000206004015414611a3257600080fd5b611a3b836149e9565b15611a4557600080fd5b611a4e82611300565b15611a5857600080fd5b6040518060a0016040528060025481526020018473ffffffffffffffffffffffffffffffffffffffff1681526020018381526020018281526020016003815250600160008573ffffffffffffffffffffffffffffffffffffffff1673ffffffffffffffffffffffffffffffffffffffff1681526020019081526020016000206000820151816000015560208201518160010160006101000a81548173ffffffffffffffffffffffffffffffffffffffff021916908373ffffffffffffffffffffffffffffffffffffffff1602179055506040820151816002019080519060200190611b44929190614c6c565b506060820151816003019080519060200190611b61929190614c6c565b50608082015181600401559050508260036000600254815260200190815260200160002060006101000a81548173ffffffffffffffffffffffffffffffffffffffff021916908373ffffffffffffffffffffffffffffffffffffffff160217905550600160026000828254611bd69190615c74565b92505081905550505050565b60075481565b60006002600160003373ffffffffffffffffffffffffffffffffffffffff1673ffffffffffffffffffffffffffffffffffffffff168152602001908152602001600020600401541480611c7e5750610309600160003373ffffffffffffffffffffffffffffffffffffffff1673ffffffffffffffffffffffffffffffffffffffff16815260200190815260200160002060040154145b80611cf557503373ffffffffffffffffffffffffffffffffffffffff16600984604051611cab919061581b565b908152602001604051809103902060080160009054906101000a900473ffffffffffffffffffffffffffffffffffffffff1673ffffffffffffffffffffffffffffffffffffffff16145b611cfe57600080fd5b81600984604051611d0f919061581b565b9081526020016040518091039020600901819055506001905092915050565b610309600160003373ffffffffffffffffffffffffffffffffffffffff1673ffffffffffffffffffffffffffffffffffffffff1681526020019081526020016000206004015414611d7e57600080fd5b611d87846149e9565b611d9057600080fd5b611d9983611300565b15611da357600080fd5b82600160008673ffffffffffffffffffffffffffffffffffffffff1673ffffffffffffffffffffffffffffffffffffffff1681526020019081526020016000206002019080519060200190611df9929190614c6c565b5080600160008673ffffffffffffffffffffffffffffffffffffffff1673ffffffffffffffffffffffffffffffffffffffff1681526020019081526020016000206004018190555081600160008673ffffffffffffffffffffffffffffffffffffffff1673ffffffffffffffffffffffffffffffffffffffff1681526020019081526020016000206003019080519060200190611e97929190614c6c565b5050505050565b600060018060003373ffffffffffffffffffffffffffffffffffffffff1673ffffffffffffffffffffffffffffffffffffffff168152602001908152602001600020600401541480611f335750610309600160003373ffffffffffffffffffffffffffffffffffffffff1673ffffffffffffffffffffffffffffffffffffffff16815260200190815260200160002060040154145b80611faa57503373ffffffffffffffffffffffffffffffffffffffff16600484604051611f60919061581b565b908152602001604051809103902060090160009054906101000a900473ffffffffffffffffffffffffffffffffffffffff1673ffffffffffffffffffffffffffffffffffffffff16145b611fb357600080fd5b81600484604051611fc4919061581b565b9081526020016040518091039020600a01819055506001905092915050565b611feb614ad5565b73ffffffffffffffffffffffffffffffffffffffff166120096127c9565b73ffffffffffffffffffffffffffffffffffffffff161461205f576040517f08c379a000000000000000000000000000000000000000000000000000000000815260040161205690615b24565b60405180910390fd5b6120696000614add565b565b606060018060003373ffffffffffffffffffffffffffffffffffffffff1673ffffffffffffffffffffffffffffffffffffffff1681526020019081526020016000206004015414806121005750610309600160003373ffffffffffffffffffffffffffffffffffffffff1673ffffffffffffffffffffffffffffffffffffffff16815260200190815260200160002060040154145b61210957600080fd5b6000600554141561211957600080fd5b600060055467ffffffffffffffff81111561215d577f4e487b7100000000000000000000000000000000000000000000000000000000600052604160045260246000fd5b60405190808252806020026020018201604052801561219657816020015b612183614cf2565b81526020019060019003908161217b5790505b50905060005b6005548110156127c15760006004600660008481526020019081526020016000206040516121ca9190615832565b9081526020016040518091039020905080604051806101600160405290816000820180546121f790615d54565b80601f016020809104026020016040519081016040528092919081815260200182805461222390615d54565b80156122705780601f1061224557610100808354040283529160200191612270565b820191906000526020600020905b81548152906001019060200180831161225357829003601f168201915b5050505050815260200160018201805461228990615d54565b80601f01602080910402602001604051908101604052809291908181526020018280546122b590615d54565b80156123025780601f106122d757610100808354040283529160200191612302565b820191906000526020600020905b8154815290600101906020018083116122e557829003601f168201915b5050505050815260200160028201805461231b90615d54565b80601f016020809104026020016040519081016040528092919081815260200182805461234790615d54565b80156123945780601f1061236957610100808354040283529160200191612394565b820191906000526020600020905b81548152906001019060200180831161237757829003601f168201915b505050505081526020016003820180546123ad90615d54565b80601f01602080910402602001604051908101604052809291908181526020018280546123d990615d54565b80156124265780601f106123fb57610100808354040283529160200191612426565b820191906000526020600020905b81548152906001019060200180831161240957829003601f168201915b5050505050815260200160048201805461243f90615d54565b80601f016020809104026020016040519081016040528092919081815260200182805461246b90615d54565b80156124b85780601f1061248d576101008083540402835291602001916124b8565b820191906000526020600020905b81548152906001019060200180831161249b57829003601f168201915b505050505081526020016005820180546124d190615d54565b80601f01602080910402602001604051908101604052809291908181526020018280546124fd90615d54565b801561254a5780601f1061251f5761010080835404028352916020019161254a565b820191906000526020600020905b81548152906001019060200180831161252d57829003601f168201915b5050505050815260200160068201805461256390615d54565b80601f016020809104026020016040519081016040528092919081815260200182805461258f90615d54565b80156125dc5780601f106125b1576101008083540402835291602001916125dc565b820191906000526020600020905b8154815290600101906020018083116125bf57829003601f168201915b505050505081526020016007820180546125f590615d54565b80601f016020809104026020016040519081016040528092919081815260200182805461262190615d54565b801561266e5780601f106126435761010080835404028352916020019161266e565b820191906000526020600020905b81548152906001019060200180831161265157829003601f168201915b5050505050815260200160088201805461268790615d54565b80601f01602080910402602001604051908101604052809291908181526020018280546126b390615d54565b80156127005780601f106126d557610100808354040283529160200191612700565b820191906000526020600020905b8154815290600101906020018083116126e357829003601f168201915b505050505081526020016009820160009054906101000a900473ffffffffffffffffffffffffffffffffffffffff1673ffffffffffffffffffffffffffffffffffffffff1673ffffffffffffffffffffffffffffffffffffffff168152602001600a820154815250508383815181106127a2577f4e487b7100000000000000000000000000000000000000000000000000000000600052603260045260246000fd5b60200260200101819052505080806127b990615db7565b91505061219c565b508091505090565b60008060009054906101000a900473ffffffffffffffffffffffffffffffffffffffff16905090565b60055481565b6060806060806060806060806060806002600160003373ffffffffffffffffffffffffffffffffffffffff1673ffffffffffffffffffffffffffffffffffffffff16815260200190815260200160002060040154148061289b5750610309600160003373ffffffffffffffffffffffffffffffffffffffff1673ffffffffffffffffffffffffffffffffffffffff16815260200190815260200160002060040154145b6128a457600080fd5b600060098c6040516128b6919061581b565b9081526020016040518091039020604051806101400160405290816000820180546128e090615d54565b80601f016020809104026020016040519081016040528092919081815260200182805461290c90615d54565b80156129595780601f1061292e57610100808354040283529160200191612959565b820191906000526020600020905b81548152906001019060200180831161293c57829003601f168201915b5050505050815260200160018201805461297290615d54565b80601f016020809104026020016040519081016040528092919081815260200182805461299e90615d54565b80156129eb5780601f106129c0576101008083540402835291602001916129eb565b820191906000526020600020905b8154815290600101906020018083116129ce57829003601f168201915b50505050508152602001600282018054612a0490615d54565b80601f0160208091040260200160405190810160405280929190818152602001828054612a3090615d54565b8015612a7d5780601f10612a5257610100808354040283529160200191612a7d565b820191906000526020600020905b815481529060010190602001808311612a6057829003601f168201915b50505050508152602001600382018054612a9690615d54565b80601f0160208091040260200160405190810160405280929190818152602001828054612ac290615d54565b8015612b0f5780601f10612ae457610100808354040283529160200191612b0f565b820191906000526020600020905b815481529060010190602001808311612af257829003601f168201915b50505050508152602001600482018054612b2890615d54565b80601f0160208091040260200160405190810160405280929190818152602001828054612b5490615d54565b8015612ba15780601f10612b7657610100808354040283529160200191612ba1565b820191906000526020600020905b815481529060010190602001808311612b8457829003601f168201915b50505050508152602001600582018054612bba90615d54565b80601f0160208091040260200160405190810160405280929190818152602001828054612be690615d54565b8015612c335780601f10612c0857610100808354040283529160200191612c33565b820191906000526020600020905b815481529060010190602001808311612c1657829003601f168201915b50505050508152602001600682018054612c4c90615d54565b80601f0160208091040260200160405190810160405280929190818152602001828054612c7890615d54565b8015612cc55780601f10612c9a57610100808354040283529160200191612cc5565b820191906000526020600020905b815481529060010190602001808311612ca857829003601f168201915b50505050508152602001600782018054612cde90615d54565b80601f0160208091040260200160405190810160405280929190818152602001828054612d0a90615d54565b8015612d575780601f10612d2c57610100808354040283529160200191612d57565b820191906000526020600020905b815481529060010190602001808311612d3a57829003601f168201915b505050505081526020016008820160009054906101000a900473ffffffffffffffffffffffffffffffffffffffff1673ffffffffffffffffffffffffffffffffffffffff1673ffffffffffffffffffffffffffffffffffffffff1681526020016009820154815250509050600060048260000151604051612dd8919061581b565b908152602001604051809103902060405180610160016040529081600082018054612e0290615d54565b80601f0160208091040260200160405190810160405280929190818152602001828054612e2e90615d54565b8015612e7b5780601f10612e5057610100808354040283529160200191612e7b565b820191906000526020600020905b815481529060010190602001808311612e5e57829003601f168201915b50505050508152602001600182018054612e9490615d54565b80601f0160208091040260200160405190810160405280929190818152602001828054612ec090615d54565b8015612f0d5780601f10612ee257610100808354040283529160200191612f0d565b820191906000526020600020905b815481529060010190602001808311612ef057829003601f168201915b50505050508152602001600282018054612f2690615d54565b80601f0160208091040260200160405190810160405280929190818152602001828054612f5290615d54565b8015612f9f5780601f10612f7457610100808354040283529160200191612f9f565b820191906000526020600020905b815481529060010190602001808311612f8257829003601f168201915b50505050508152602001600382018054612fb890615d54565b80601f0160208091040260200160405190810160405280929190818152602001828054612fe490615d54565b80156130315780601f1061300657610100808354040283529160200191613031565b820191906000526020600020905b81548152906001019060200180831161301457829003601f168201915b5050505050815260200160048201805461304a90615d54565b80601f016020809104026020016040519081016040528092919081815260200182805461307690615d54565b80156130c35780601f10613098576101008083540402835291602001916130c3565b820191906000526020600020905b8154815290600101906020018083116130a657829003601f168201915b505050505081526020016005820180546130dc90615d54565b80601f016020809104026020016040519081016040528092919081815260200182805461310890615d54565b80156131555780601f1061312a57610100808354040283529160200191613155565b820191906000526020600020905b81548152906001019060200180831161313857829003601f168201915b5050505050815260200160068201805461316e90615d54565b80601f016020809104026020016040519081016040528092919081815260200182805461319a90615d54565b80156131e75780601f106131bc576101008083540402835291602001916131e7565b820191906000526020600020905b8154815290600101906020018083116131ca57829003601f168201915b5050505050815260200160078201805461320090615d54565b80601f016020809104026020016040519081016040528092919081815260200182805461322c90615d54565b80156132795780601f1061324e57610100808354040283529160200191613279565b820191906000526020600020905b81548152906001019060200180831161325c57829003601f168201915b5050505050815260200160088201805461329290615d54565b80601f01602080910402602001604051908101604052809291908181526020018280546132be90615d54565b801561330b5780601f106132e05761010080835404028352916020019161330b565b820191906000526020600020905b8154815290600101906020018083116132ee57829003601f168201915b505050505081526020016009820160009054906101000a900473ffffffffffffffffffffffffffffffffffffffff1673ffffffffffffffffffffffffffffffffffffffff1673ffffffffffffffffffffffffffffffffffffffff168152602001600a820154815250509050816000015182602001518360400151846060015185608001518660a001518760c001518860e00151886020015189604001519b509b509b509b509b509b509b509b509b509b5050509193959799509193959799565b60608060608060608060608060606000808b60048e6040516133ed919061581b565b9081526020016040518091039020600a01541461340957600080fd5b600060048e60405161341b919061581b565b90815260200160405180910390206040518061016001604052908160008201805461344590615d54565b80601f016020809104026020016040519081016040528092919081815260200182805461347190615d54565b80156134be5780601f10613493576101008083540402835291602001916134be565b820191906000526020600020905b8154815290600101906020018083116134a157829003601f168201915b505050505081526020016001820180546134d790615d54565b80601f016020809104026020016040519081016040528092919081815260200182805461350390615d54565b80156135505780601f1061352557610100808354040283529160200191613550565b820191906000526020600020905b81548152906001019060200180831161353357829003601f168201915b5050505050815260200160028201805461356990615d54565b80601f016020809104026020016040519081016040528092919081815260200182805461359590615d54565b80156135e25780601f106135b7576101008083540402835291602001916135e2565b820191906000526020600020905b8154815290600101906020018083116135c557829003601f168201915b505050505081526020016003820180546135fb90615d54565b80601f016020809104026020016040519081016040528092919081815260200182805461362790615d54565b80156136745780601f1061364957610100808354040283529160200191613674565b820191906000526020600020905b81548152906001019060200180831161365757829003601f168201915b5050505050815260200160048201805461368d90615d54565b80601f01602080910402602001604051908101604052809291908181526020018280546136b990615d54565b80156137065780601f106136db57610100808354040283529160200191613706565b820191906000526020600020905b8154815290600101906020018083116136e957829003601f168201915b5050505050815260200160058201805461371f90615d54565b80601f016020809104026020016040519081016040528092919081815260200182805461374b90615d54565b80156137985780601f1061376d57610100808354040283529160200191613798565b820191906000526020600020905b81548152906001019060200180831161377b57829003601f168201915b505050505081526020016006820180546137b190615d54565b80601f01602080910402602001604051908101604052809291908181526020018280546137dd90615d54565b801561382a5780601f106137ff5761010080835404028352916020019161382a565b820191906000526020600020905b81548152906001019060200180831161380d57829003601f168201915b5050505050815260200160078201805461384390615d54565b80601f016020809104026020016040519081016040528092919081815260200182805461386f90615d54565b80156138bc5780601f10613891576101008083540402835291602001916138bc565b820191906000526020600020905b81548152906001019060200180831161389f57829003601f168201915b505050505081526020016008820180546138d590615d54565b80601f016020809104026020016040519081016040528092919081815260200182805461390190615d54565b801561394e5780601f106139235761010080835404028352916020019161394e565b820191906000526020600020905b81548152906001019060200180831161393157829003601f168201915b505050505081526020016009820160009054906101000a900473ffffffffffffffffffffffffffffffffffffffff1673ffffffffffffffffffffffffffffffffffffffff1673ffffffffffffffffffffffffffffffffffffffff168152602001600a820154815250509050806000015181602001518260400151836060015184608001518560a001518660c001518760e001518861010001518961012001518a61014001519b509b509b509b509b509b509b509b509b509b509b50509295989b509295989b9093969950565b600a6020528060005260406000206000915090508054613a3990615d54565b80601f0160208091040260200160405190810160405280929190818152602001828054613a6590615d54565b8015613ab25780601f10613a8757610100808354040283529160200191613ab2565b820191906000526020600020905b815481529060010190602001808311613a9557829003601f168201915b505050505081565b6000606080600080600160008773ffffffffffffffffffffffffffffffffffffffff1673ffffffffffffffffffffffffffffffffffffffff1681526020019081526020016000206040518060a0016040529081600082015481526020016001820160009054906101000a900473ffffffffffffffffffffffffffffffffffffffff1673ffffffffffffffffffffffffffffffffffffffff1673ffffffffffffffffffffffffffffffffffffffff168152602001600282018054613b7c90615d54565b80601f0160208091040260200160405190810160405280929190818152602001828054613ba890615d54565b8015613bf55780601f10613bca57610100808354040283529160200191613bf5565b820191906000526020600020905b815481529060010190602001808311613bd857829003601f168201915b50505050508152602001600382018054613c0e90615d54565b80601f0160208091040260200160405190810160405280929190818152602001828054613c3a90615d54565b8015613c875780601f10613c5c57610100808354040283529160200191613c87565b820191906000526020600020905b815481529060010190602001808311613c6a57829003601f168201915b50505050508152602001600482015481525050905080602001518160400151826060015183608001519450945094509450509193509193565b60025481565b613ccf89614ba1565b613cd857600080fd5b613ce1336149e9565b613cea57600080fd5b6002600160003373ffffffffffffffffffffffffffffffffffffffff1673ffffffffffffffffffffffffffffffffffffffff168152602001908152602001600020600401541480613d7e5750610309600160003373ffffffffffffffffffffffffffffffffffffffff1673ffffffffffffffffffffffffffffffffffffffff16815260200190815260200160002060040154145b613d8757600080fd5b8760098a604051613d98919061581b565b90815260200160405180910390206002019080519060200190613dbc929190614c6c565b508660098a604051613dce919061581b565b90815260200160405180910390206003019080519060200190613df2929190614c6c565b508560098a604051613e04919061581b565b90815260200160405180910390206004019080519060200190613e28929190614c6c565b508460098a604051613e3a919061581b565b90815260200160405180910390206005019080519060200190613e5e929190614c6c565b508360098a604051613e70919061581b565b90815260200160405180910390206006019080519060200190613e94929190614c6c565b508260098a604051613ea6919061581b565b90815260200160405180910390206007019080519060200190613eca929190614c6c565b508160098a604051613edc919061581b565b908152602001604051809103902060080160006101000a81548173ffffffffffffffffffffffffffffffffffffffff021916908373ffffffffffffffffffffffffffffffffffffffff1602179055508060098a604051613f3c919061581b565b90815260200160405180910390206009018190555050505050505050505050565b613f668b61491e565b613f6f57600080fd5b613f78336149e9565b613f8157600080fd5b60018060003373ffffffffffffffffffffffffffffffffffffffff1673ffffffffffffffffffffffffffffffffffffffff1681526020019081526020016000206004015414806140145750610309600160003373ffffffffffffffffffffffffffffffffffffffff1673ffffffffffffffffffffffffffffffffffffffff16815260200190815260200160002060040154145b61401d57600080fd5b8960048c60405161402e919061581b565b90815260200160405180910390206001019080519060200190614052929190614c6c565b508860048c604051614064919061581b565b90815260200160405180910390206002019080519060200190614088929190614c6c565b508760048c60405161409a919061581b565b908152602001604051809103902060030190805190602001906140be929190614c6c565b508660048c6040516140d0919061581b565b908152602001604051809103902060040190805190602001906140f4929190614c6c565b508560048c604051614106919061581b565b9081526020016040518091039020600501908051906020019061412a929190614c6c565b508460048c60405161413c919061581b565b90815260200160405180910390206006019080519060200190614160929190614c6c565b508360048c604051614172919061581b565b90815260200160405180910390206007019080519060200190614196929190614c6c565b508260048c6040516141a8919061581b565b908152602001604051809103902060080190805190602001906141cc929190614c6c565b508160048c6040516141de919061581b565b908152602001604051809103902060090160006101000a81548173ffffffffffffffffffffffffffffffffffffffff021916908373ffffffffffffffffffffffffffffffffffffffff1602179055508060048c60405161423e919061581b565b9081526020016040518091039020600a01819055505050505050505050505050565b6060600060025467ffffffffffffffff8111156142a6577f4e487b7100000000000000000000000000000000000000000000000000000000600052604160045260246000fd5b6040519080825280602002602001820160405280156142df57816020015b6142cc614d62565b8152602001906001900390816142c45790505b50905060005b600254811015614557576000600160006003600085815260200190815260200160002060009054906101000a900473ffffffffffffffffffffffffffffffffffffffff1673ffffffffffffffffffffffffffffffffffffffff1673ffffffffffffffffffffffffffffffffffffffff1681526020019081526020016000209050806040518060a0016040529081600082015481526020016001820160009054906101000a900473ffffffffffffffffffffffffffffffffffffffff1673ffffffffffffffffffffffffffffffffffffffff1673ffffffffffffffffffffffffffffffffffffffff1681526020016002820180546143e190615d54565b80601f016020809104026020016040519081016040528092919081815260200182805461440d90615d54565b801561445a5780601f1061442f5761010080835404028352916020019161445a565b820191906000526020600020905b81548152906001019060200180831161443d57829003601f168201915b5050505050815260200160038201805461447390615d54565b80601f016020809104026020016040519081016040528092919081815260200182805461449f90615d54565b80156144ec5780601f106144c1576101008083540402835291602001916144ec565b820191906000526020600020905b8154815290600101906020018083116144cf57829003601f168201915b50505050508152602001600482015481525050838381518110614538577f4e487b7100000000000000000000000000000000000000000000000000000000600052603260045260246000fd5b602002602001018190525050808061454f90615db7565b9150506142e5565b508091505090565b614567614ad5565b73ffffffffffffffffffffffffffffffffffffffff166145856127c9565b73ffffffffffffffffffffffffffffffffffffffff16146145db576040517f08c379a00000000000000000000000000000000000000000000000000000000081526004016145d290615b24565b60405180910390fd5b600073ffffffffffffffffffffffffffffffffffffffff168173ffffffffffffffffffffffffffffffffffffffff16141561464b576040517f08c379a000000000000000000000000000000000000000000000000000000000815260040161464290615b04565b60405180910390fd5b61465481614add565b50565b6146608a61491e565b61466957600080fd5b614672336149e9565b61467b57600080fd5b6002600160003373ffffffffffffffffffffffffffffffffffffffff1673ffffffffffffffffffffffffffffffffffffffff16815260200190815260200160002060040154148061470f5750610309600160003373ffffffffffffffffffffffffffffffffffffffff1673ffffffffffffffffffffffffffffffffffffffff16815260200190815260200160002060040154145b61471857600080fd5b6040518061014001604052808b81526020018a81526020018981526020018881526020018781526020018681526020018581526020018481526020018373ffffffffffffffffffffffffffffffffffffffff1681526020018281525060098a604051614784919061581b565b908152602001604051809103902060008201518160000190805190602001906147ae929190614c6c565b5060208201518160010190805190602001906147cb929190614c6c565b5060408201518160020190805190602001906147e8929190614c6c565b506060820151816003019080519060200190614805929190614c6c565b506080820151816004019080519060200190614822929190614c6c565b5060a082015181600501908051906020019061483f929190614c6c565b5060c082015181600601908051906020019061485c929190614c6c565b5060e0820151816007019080519060200190614879929190614c6c565b506101008201518160080160006101000a81548173ffffffffffffffffffffffffffffffffffffffff021916908373ffffffffffffffffffffffffffffffffffffffff160217905550610120820151816009015590505089600a6000600754815260200190815260200160002090805190602001906148f9929190614c6c565b506007600081548092919061490d90615db7565b919050555050505050505050505050565b60006149d2600483604051614933919061581b565b9081526020016040518091039020600001805461494f90615d54565b80601f016020809104026020016040519081016040528092919081815260200182805461497b90615d54565b80156149c85780601f1061499d576101008083540402835291602001916149c8565b820191906000526020600020905b8154815290600101906020018083116149ab57829003601f168201915b5050505050611300565b6149df57600190506149e4565b600090505b919050565b6000614abe600160008473ffffffffffffffffffffffffffffffffffffffff1673ffffffffffffffffffffffffffffffffffffffff1681526020019081526020016000206002018054614a3b90615d54565b80601f0160208091040260200160405190810160405280929190818152602001828054614a6790615d54565b8015614ab45780601f10614a8957610100808354040283529160200191614ab4565b820191906000526020600020905b815481529060010190602001808311614a9757829003601f168201915b5050505050611300565b614acb5760019050614ad0565b600090505b919050565b600033905090565b60008060009054906101000a900473ffffffffffffffffffffffffffffffffffffffff169050816000806101000a81548173ffffffffffffffffffffffffffffffffffffffff021916908373ffffffffffffffffffffffffffffffffffffffff1602179055508173ffffffffffffffffffffffffffffffffffffffff168173ffffffffffffffffffffffffffffffffffffffff167f8be0079c531659141344cd1fd0a4f28419497f9722a3daafe3b4186f6b6457e060405160405180910390a35050565b6000614c55600983604051614bb6919061581b565b90815260200160405180910390206000018054614bd290615d54565b80601f0160208091040260200160405190810160405280929190818152602001828054614bfe90615d54565b8015614c4b5780601f10614c2057610100808354040283529160200191614c4b565b820191906000526020600020905b815481529060010190602001808311614c2e57829003601f168201915b5050505050611300565b614c625760019050614c67565b600090505b919050565b828054614c7890615d54565b90600052602060002090601f016020900481019282614c9a5760008555614ce1565b82601f10614cb357805160ff1916838001178555614ce1565b82800160010185558215614ce1579182015b82811115614ce0578251825591602001919060010190614cc5565b5b509050614cee9190614da7565b5090565b604051806101600160405280606081526020016060815260200160608152602001606081526020016060815260200160608152602001606081526020016060815260200160608152602001600073ffffffffffffffffffffffffffffffffffffffff168152602001600081525090565b6040518060a0016040528060008152602001600073ffffffffffffffffffffffffffffffffffffffff1681526020016060815260200160608152602001600081525090565b5b80821115614dc0576000816000905550600101614da8565b5090565b6000614dd7614dd284615b84565b615b5f565b905082815260208101848484011115614def57600080fd5b614dfa848285615d12565b509392505050565b600081359050614e1181615f16565b92915050565b600082601f830112614e2857600080fd5b8135614e38848260208601614dc4565b91505092915050565b600081359050614e5081615f2d565b92915050565b600060208284031215614e6857600080fd5b6000614e7684828501614e02565b91505092915050565b600080600060608486031215614e9457600080fd5b6000614ea286828701614e02565b935050602084013567ffffffffffffffff811115614ebf57600080fd5b614ecb86828701614e17565b925050604084013567ffffffffffffffff811115614ee857600080fd5b614ef486828701614e17565b9150509250925092565b60008060008060808587031215614f1457600080fd5b6000614f2287828801614e02565b945050602085013567ffffffffffffffff811115614f3f57600080fd5b614f4b87828801614e17565b935050604085013567ffffffffffffffff811115614f6857600080fd5b614f7487828801614e17565b9250506060614f8587828801614e41565b91505092959194509250565b600060208284031215614fa357600080fd5b600082013567ffffffffffffffff811115614fbd57600080fd5b614fc984828501614e17565b91505092915050565b6000806000806000806000806000806101408b8d031215614ff257600080fd5b60008b013567ffffffffffffffff81111561500c57600080fd5b6150188d828e01614e17565b9a505060208b013567ffffffffffffffff81111561503557600080fd5b6150418d828e01614e17565b99505060408b013567ffffffffffffffff81111561505e57600080fd5b61506a8d828e01614e17565b98505060608b013567ffffffffffffffff81111561508757600080fd5b6150938d828e01614e17565b97505060808b013567ffffffffffffffff8111156150b057600080fd5b6150bc8d828e01614e17565b96505060a08b013567ffffffffffffffff8111156150d957600080fd5b6150e58d828e01614e17565b95505060c08b013567ffffffffffffffff81111561510257600080fd5b61510e8d828e01614e17565b94505060e08b013567ffffffffffffffff81111561512b57600080fd5b6151378d828e01614e17565b9350506101006151498d828e01614e02565b92505061012061515b8d828e01614e41565b9150509295989b9194979a5092959850565b60008060008060008060008060008060006101608c8e03121561518f57600080fd5b60008c013567ffffffffffffffff8111156151a957600080fd5b6151b58e828f01614e17565b9b505060208c013567ffffffffffffffff8111156151d257600080fd5b6151de8e828f01614e17565b9a505060408c013567ffffffffffffffff8111156151fb57600080fd5b6152078e828f01614e17565b99505060608c013567ffffffffffffffff81111561522457600080fd5b6152308e828f01614e17565b98505060808c013567ffffffffffffffff81111561524d57600080fd5b6152598e828f01614e17565b97505060a08c013567ffffffffffffffff81111561527657600080fd5b6152828e828f01614e17565b96505060c08c013567ffffffffffffffff81111561529f57600080fd5b6152ab8e828f01614e17565b95505060e08c013567ffffffffffffffff8111156152c857600080fd5b6152d48e828f01614e17565b9450506101008c013567ffffffffffffffff8111156152f257600080fd5b6152fe8e828f01614e17565b9350506101206153108e828f01614e02565b9250506101406153228e828f01614e41565b9150509295989b509295989b9093969950565b6000806040838503121561534857600080fd5b600083013567ffffffffffffffff81111561536257600080fd5b61536e85828601614e17565b925050602061537f85828601614e41565b9150509250929050565b60006020828403121561539b57600080fd5b60006153a984828501614e41565b91505092915050565b60006153be8383615659565b905092915050565b60006153d283836156d6565b905092915050565b6153e381615cca565b82525050565b6153f281615cca565b82525050565b600061540382615bea565b61540d8185615c25565b93508360208202850161541f85615bb5565b8060005b8581101561545b578484038952815161543c85826153b2565b945061544783615c0b565b925060208a01995050600181019050615423565b50829750879550505050505092915050565b600061547882615bf5565b6154828185615c36565b93508360208202850161549485615bc5565b8060005b858110156154d057848403895281516154b185826153c6565b94506154bc83615c18565b925060208a01995050600181019050615498565b50829750879550505050505092915050565b6154eb81615cdc565b82525050565b60006154fc82615c00565b6155068185615c47565b9350615516818560208601615d21565b61551f81615e8d565b840191505092915050565b600061553582615c00565b61553f8185615c58565b935061554f818560208601615d21565b61555881615e8d565b840191505092915050565b600061556e82615c00565b6155788185615c69565b9350615588818560208601615d21565b80840191505092915050565b600081546155a181615d54565b6155ab8186615c69565b945060018216600081146155c657600181146155d75761560a565b60ff1983168652818601935061560a565b6155e085615bd5565b60005b83811015615602578154818901526001820191506020810190506155e3565b838801955050505b50505092915050565b6000615620602683615c58565b915061562b82615e9e565b604082019050919050565b6000615643602083615c58565b915061564e82615eed565b602082019050919050565b600060a08301600083015161567160008601826157fd565b50602083015161568460208601826153da565b506040830151848203604086015261569c82826154f1565b915050606083015184820360608601526156b682826154f1565b91505060808301516156cb60808601826157fd565b508091505092915050565b60006101608301600083015184820360008601526156f482826154f1565b9150506020830151848203602086015261570e82826154f1565b9150506040830151848203604086015261572882826154f1565b9150506060830151848203606086015261574282826154f1565b9150506080830151848203608086015261575c82826154f1565b91505060a083015184820360a086015261577682826154f1565b91505060c083015184820360c086015261579082826154f1565b91505060e083015184820360e08601526157aa82826154f1565b9150506101008301518482036101008601526157c682826154f1565b9150506101208301516157dd6101208601826153da565b506101408301516157f26101408601826157fd565b508091505092915050565b61580681615d08565b82525050565b61581581615d08565b82525050565b60006158278284615563565b915081905092915050565b600061583e8284615594565b915081905092915050565b600060208201905061585e60008301846153e9565b92915050565b600060808201905061587960008301876153e9565b818103602083015261588b818661552a565b9050818103604083015261589f818561552a565b90506158ae606083018461580c565b95945050505050565b600060208201905081810360008301526158d181846153f8565b905092915050565b600060208201905081810360008301526158f3818461546d565b905092915050565b600060208201905061591060008301846154e2565b92915050565b60006020820190508181036000830152615930818461552a565b905092915050565b6000610160820190508181036000830152615953818e61552a565b90508181036020830152615967818d61552a565b9050818103604083015261597b818c61552a565b9050818103606083015261598f818b61552a565b905081810360808301526159a3818a61552a565b905081810360a08301526159b7818961552a565b905081810360c08301526159cb818861552a565b905081810360e08301526159df818761552a565b90508181036101008301526159f4818661552a565b9050615a046101208301856153e9565b615a1261014083018461580c565b9c9b505050505050505050505050565b6000610140820190508181036000830152615a3d818d61552a565b90508181036020830152615a51818c61552a565b90508181036040830152615a65818b61552a565b90508181036060830152615a79818a61552a565b90508181036080830152615a8d818961552a565b905081810360a0830152615aa1818861552a565b905081810360c0830152615ab5818761552a565b905081810360e0830152615ac9818661552a565b9050818103610100830152615ade818561552a565b9050818103610120830152615af3818461552a565b90509b9a5050505050505050505050565b60006020820190508181036000830152615b1d81615613565b9050919050565b60006020820190508181036000830152615b3d81615636565b9050919050565b6000602082019050615b59600083018461580c565b92915050565b6000615b69615b7a565b9050615b758282615d86565b919050565b6000604051905090565b600067ffffffffffffffff821115615b9f57615b9e615e5e565b5b615ba882615e8d565b9050602081019050919050565b6000819050602082019050919050565b6000819050602082019050919050565b60008190508160005260206000209050919050565b600081519050919050565b600081519050919050565b600081519050919050565b6000602082019050919050565b6000602082019050919050565b600082825260208201905092915050565b600082825260208201905092915050565b600082825260208201905092915050565b600082825260208201905092915050565b600081905092915050565b6000615c7f82615d08565b9150615c8a83615d08565b9250827fffffffffffffffffffffffffffffffffffffffffffffffffffffffffffffffff03821115615cbf57615cbe615e00565b5b828201905092915050565b6000615cd582615ce8565b9050919050565b60008115159050919050565b600073ffffffffffffffffffffffffffffffffffffffff82169050919050565b6000819050919050565b82818337600083830152505050565b60005b83811015615d3f578082015181840152602081019050615d24565b83811115615d4e576000848401525b50505050565b60006002820490506001821680615d6c57607f821691505b60208210811415615d8057615d7f615e2f565b5b50919050565b615d8f82615e8d565b810181811067ffffffffffffffff82111715615dae57615dad615e5e565b5b80604052505050565b6000615dc282615d08565b91507fffffffffffffffffffffffffffffffffffffffffffffffffffffffffffffffff821415615df557615df4615e00565b5b600182019050919050565b7f4e487b7100000000000000000000000000000000000000000000000000000000600052601160045260246000fd5b7f4e487b7100000000000000000000000000000000000000000000000000000000600052602260045260246000fd5b7f4e487b7100000000000000000000000000000000000000000000000000000000600052604160045260246000fd5b6000601f19601f8301169050919050565b7f4f776e61626c653a206e6577206f776e657220697320746865207a65726f206160008201527f6464726573730000000000000000000000000000000000000000000000000000602082015250565b7f4f776e61626c653a2063616c6c6572206973206e6f7420746865206f776e6572600082015250565b615f1f81615cca565b8114615f2a57600080fd5b50565b615f3681615d08565b8114615f4157600080fd5b5056fea2646970667358221220d038a645fe97b3ca594ce6a0a28c28eb1cab6324e35d57bad443cc163e80027664736f6c63430008040033",
  "linkReferences": {},
  "deployedLinkReferences": {}
}